{
  "_format": "hh-sol-artifact-1",
  "contractName": "Operations",
  "sourceName": "contracts/Operations.sol",
  "abi": [
    {
      "inputs": [],
      "stateMutability": "nonpayable",
      "type": "constructor"
    },
    {
      "inputs": [
        {
          "internalType": "string",
          "name": "email",
          "type": "string"
        }
      ],
      "name": "MessageReceived",
      "outputs": [
        {
          "components": [
            {
              "internalType": "uint256",
              "name": "id",
              "type": "uint256"
            },
            {
              "internalType": "address",
              "name": "sender",
              "type": "address"
            },
            {
              "internalType": "address",
              "name": "receiver",
              "type": "address"
            },
            {
              "internalType": "string",
              "name": "subject",
              "type": "string"
            },
            {
              "internalType": "string",
              "name": "message",
              "type": "string"
            },
            {
              "internalType": "uint256",
              "name": "timestamp",
              "type": "uint256"
            },
            {
              "internalType": "bool",
              "name": "read",
              "type": "bool"
            },
            {
              "internalType": "bool",
              "name": "shareable",
              "type": "bool"
            },
            {
              "internalType": "address[]",
              "name": "viewedBy",
              "type": "address[]"
            },
            {
              "internalType": "uint256",
              "name": "originalMessageId",
              "type": "uint256"
            },
            {
              "internalType": "string",
              "name": "fileHash",
              "type": "string"
            },
            {
              "internalType": "string",
              "name": "receiversGroup",
              "type": "string"
            },
            {
              "internalType": "enum Chat.DeletionStatus",
              "name": "deleted",
              "type": "uint8"
            }
          ],
          "internalType": "struct Chat.Message[]",
          "name": "",
          "type": "tuple[]"
        }
      ],
      "stateMutability": "view",
      "type": "function"
    },
    {
      "inputs": [
        {
          "internalType": "string",
          "name": "email",
          "type": "string"
        }
      ],
      "name": "MessageSent",
      "outputs": [
        {
          "components": [
            {
              "internalType": "uint256",
              "name": "id",
              "type": "uint256"
            },
            {
              "internalType": "address",
              "name": "sender",
              "type": "address"
            },
            {
              "internalType": "address",
              "name": "receiver",
              "type": "address"
            },
            {
              "internalType": "string",
              "name": "subject",
              "type": "string"
            },
            {
              "internalType": "string",
              "name": "message",
              "type": "string"
            },
            {
              "internalType": "uint256",
              "name": "timestamp",
              "type": "uint256"
            },
            {
              "internalType": "bool",
              "name": "read",
              "type": "bool"
            },
            {
              "internalType": "bool",
              "name": "shareable",
              "type": "bool"
            },
            {
              "internalType": "address[]",
              "name": "viewedBy",
              "type": "address[]"
            },
            {
              "internalType": "uint256",
              "name": "originalMessageId",
              "type": "uint256"
            },
            {
              "internalType": "string",
              "name": "fileHash",
              "type": "string"
            },
            {
              "internalType": "string",
              "name": "receiversGroup",
              "type": "string"
            },
            {
              "internalType": "enum Chat.DeletionStatus",
              "name": "deleted",
              "type": "uint8"
            }
          ],
          "internalType": "struct Chat.Message[]",
          "name": "",
          "type": "tuple[]"
        }
      ],
      "stateMutability": "view",
      "type": "function"
    },
    {
      "inputs": [
        {
          "internalType": "string",
          "name": "email",
          "type": "string"
        }
      ],
      "name": "getMessagesCount",
      "outputs": [
        {
          "internalType": "uint256",
          "name": "",
          "type": "uint256"
        }
      ],
      "stateMutability": "view",
      "type": "function"
    }
  ],
  "bytecode": "0x608060405234801561001057600080fd5b50736c330e24a6bdfdf8017994c134e20fe35c38d03a6000806101000a81548173ffffffffffffffffffffffffffffffffffffffff021916908373ffffffffffffffffffffffffffffffffffffffff160217905550731690926d949e258f61b9095efaa0bf0d34a71171600160006101000a81548173ffffffffffffffffffffffffffffffffffffffff021916908373ffffffffffffffffffffffffffffffffffffffff160217905550611940806100c96000396000f3fe608060405234801561001057600080fd5b50600436106100415760003560e01c80633df3e92f14610046578063bdc68c1014610076578063f7d0fdc3146100a6575b600080fd5b610060600480360381019061005b9190610e4c565b6100d6565b60405161006d9190610eae565b60405180910390f35b610090600480360381019061008b9190610e4c565b61029a565b60405161009d91906112d0565b60405180910390f35b6100c060048036038101906100bb9190610e4c565b610747565b6040516100cd91906112d0565b60405180910390f35b600080600090506000600160009054906101000a900473ffffffffffffffffffffffffffffffffffffffff1673ffffffffffffffffffffffffffffffffffffffff1663bcaad3856040518163ffffffff1660e01b8152600401600060405180830381865afa15801561014c573d6000803e3d6000fd5b505050506040513d6000823e3d601f19601f820116820180604052508101906101759190611782565b905060005b815181101561028f5760008054906101000a900473ffffffffffffffffffffffffffffffffffffffff1673ffffffffffffffffffffffffffffffffffffffff1663bf40fac1866040518263ffffffff1660e01b81526004016101dc9190611815565b602060405180830381865afa1580156101f9573d6000803e3d6000fd5b505050506040513d601f19601f8201168201806040525081019061021d9190611837565b73ffffffffffffffffffffffffffffffffffffffff1682828151811061024657610245611864565b5b60200260200101516020015173ffffffffffffffffffffffffffffffffffffffff160361027c578280610278906118c2565b9350505b8080610287906118c2565b91505061017a565b508192505050919050565b6060600080600160009054906101000a900473ffffffffffffffffffffffffffffffffffffffff1673ffffffffffffffffffffffffffffffffffffffff1663bcaad3856040518163ffffffff1660e01b8152600401600060405180830381865afa15801561030c573d6000803e3d6000fd5b505050506040513d6000823e3d601f19601f820116820180604052508101906103359190611782565b905060005b81518110156104ef5760008054906101000a900473ffffffffffffffffffffffffffffffffffffffff1673ffffffffffffffffffffffffffffffffffffffff1663bf40fac1866040518263ffffffff1660e01b815260040161039c9190611815565b602060405180830381865afa1580156103b9573d6000803e3d6000fd5b505050506040513d601f19601f820116820180604052508101906103dd9190611837565b73ffffffffffffffffffffffffffffffffffffffff1682828151811061040657610405611864565b5b60200260200101516020015173ffffffffffffffffffffffffffffffffffffffff161480156104795750600160038111156104445761044361108e565b5b82828151811061045757610456611864565b5b6020026020010151610180015160038111156104765761047561108e565b5b14155b80156104c857506003808111156104935761049261108e565b5b8282815181106104a6576104a5611864565b5b6020026020010151610180015160038111156104c5576104c461108e565b5b14155b156104dc5782806104d8906118c2565b9350505b80806104e7906118c2565b91505061033a565b5060008267ffffffffffffffff81111561050c5761050b610d21565b5b60405190808252806020026020018201604052801561054557816020015b610532610c48565b81526020019060019003908161052a5790505b5090506000805b835181101561073a5760008054906101000a900473ffffffffffffffffffffffffffffffffffffffff1673ffffffffffffffffffffffffffffffffffffffff1663bf40fac1886040518263ffffffff1660e01b81526004016105ae9190611815565b602060405180830381865afa1580156105cb573d6000803e3d6000fd5b505050506040513d601f19601f820116820180604052508101906105ef9190611837565b73ffffffffffffffffffffffffffffffffffffffff1684828151811061061857610617611864565b5b60200260200101516020015173ffffffffffffffffffffffffffffffffffffffff1614801561068b5750600160038111156106565761065561108e565b5b84828151811061066957610668611864565b5b6020026020010151610180015160038111156106885761068761108e565b5b14155b80156106da57506003808111156106a5576106a461108e565b5b8482815181106106b8576106b7611864565b5b6020026020010151610180015160038111156106d7576106d661108e565b5b14155b15610727578381815181106106f2576106f1611864565b5b602002602001015183838151811061070d5761070c611864565b5b60200260200101819052508180610723906118c2565b9250505b8080610732906118c2565b91505061054c565b5081945050505050919050565b6060600080600160009054906101000a900473ffffffffffffffffffffffffffffffffffffffff1673ffffffffffffffffffffffffffffffffffffffff1663bcaad3856040518163ffffffff1660e01b8152600401600060405180830381865afa1580156107b9573d6000803e3d6000fd5b505050506040513d6000823e3d601f19601f820116820180604052508101906107e29190611782565b905060005b81518110156109c65760008054906101000a900473ffffffffffffffffffffffffffffffffffffffff1673ffffffffffffffffffffffffffffffffffffffff1663bf40fac1866040518263ffffffff1660e01b81526004016108499190611815565b602060405180830381865afa158015610866573d6000803e3d6000fd5b505050506040513d601f19601f8201168201806040525081019061088a9190611837565b73ffffffffffffffffffffffffffffffffffffffff168282815181106108b3576108b2611864565b5b60200260200101516040015173ffffffffffffffffffffffffffffffffffffffff161480156109005750428282815181106108f1576108f0611864565b5b602002602001015160a0015111155b801561095057506002600381111561091b5761091a61108e565b5b82828151811061092e5761092d611864565b5b60200260200101516101800151600381111561094d5761094c61108e565b5b14155b801561099f575060038081111561096a5761096961108e565b5b82828151811061097d5761097c611864565b5b60200260200101516101800151600381111561099c5761099b61108e565b5b14155b156109b35782806109af906118c2565b9350505b80806109be906118c2565b9150506107e7565b5060008267ffffffffffffffff8111156109e3576109e2610d21565b5b604051908082528060200260200182016040528015610a1c57816020015b610a09610c48565b815260200190600190039081610a015790505b5090506000805b8351811015610c3b5760008054906101000a900473ffffffffffffffffffffffffffffffffffffffff1673ffffffffffffffffffffffffffffffffffffffff1663bf40fac1886040518263ffffffff1660e01b8152600401610a859190611815565b602060405180830381865afa158015610aa2573d6000803e3d6000fd5b505050506040513d601f19601f82011682018060405250810190610ac69190611837565b73ffffffffffffffffffffffffffffffffffffffff16848281518110610aef57610aee611864565b5b60200260200101516040015173ffffffffffffffffffffffffffffffffffffffff16148015610b3c575042848281518110610b2d57610b2c611864565b5b602002602001015160a0015111155b8015610b8c575060026003811115610b5757610b5661108e565b5b848281518110610b6a57610b69611864565b5b602002602001015161018001516003811115610b8957610b8861108e565b5b14155b8015610bdb5750600380811115610ba657610ba561108e565b5b848281518110610bb957610bb8611864565b5b602002602001015161018001516003811115610bd857610bd761108e565b5b14155b15610c2857838181518110610bf357610bf2611864565b5b6020026020010151838381518110610c0e57610c0d611864565b5b60200260200101819052508180610c24906118c2565b9250505b8080610c33906118c2565b915050610a23565b5081945050505050919050565b604051806101a0016040528060008152602001600073ffffffffffffffffffffffffffffffffffffffff168152602001600073ffffffffffffffffffffffffffffffffffffffff1681526020016060815260200160608152602001600081526020016000151581526020016000151581526020016060815260200160008152602001606081526020016060815260200160006003811115610cec57610ceb61108e565b5b81525090565b6000604051905090565b600080fd5b600080fd5b600080fd5b600080fd5b6000601f19601f8301169050919050565b7f4e487b7100000000000000000000000000000000000000000000000000000000600052604160045260246000fd5b610d5982610d10565b810181811067ffffffffffffffff82111715610d7857610d77610d21565b5b80604052505050565b6000610d8b610cf2565b9050610d978282610d50565b919050565b600067ffffffffffffffff821115610db757610db6610d21565b5b610dc082610d10565b9050602081019050919050565b82818337600083830152505050565b6000610def610dea84610d9c565b610d81565b905082815260208101848484011115610e0b57610e0a610d0b565b5b610e16848285610dcd565b509392505050565b600082601f830112610e3357610e32610d06565b5b8135610e43848260208601610ddc565b91505092915050565b600060208284031215610e6257610e61610cfc565b5b600082013567ffffffffffffffff811115610e8057610e7f610d01565b5b610e8c84828501610e1e565b91505092915050565b6000819050919050565b610ea881610e95565b82525050565b6000602082019050610ec36000830184610e9f565b92915050565b600081519050919050565b600082825260208201905092915050565b6000819050602082019050919050565b610efe81610e95565b82525050565b600073ffffffffffffffffffffffffffffffffffffffff82169050919050565b6000610f2f82610f04565b9050919050565b610f3f81610f24565b82525050565b600081519050919050565b600082825260208201905092915050565b60005b83811015610f7f578082015181840152602081019050610f64565b60008484015250505050565b6000610f9682610f45565b610fa08185610f50565b9350610fb0818560208601610f61565b610fb981610d10565b840191505092915050565b60008115159050919050565b610fd981610fc4565b82525050565b600081519050919050565b600082825260208201905092915050565b6000819050602082019050919050565b60006110178383610f36565b60208301905092915050565b6000602082019050919050565b600061103b82610fdf565b6110458185610fea565b935061105083610ffb565b8060005b83811015611081578151611068888261100b565b975061107383611023565b925050600181019050611054565b5085935050505092915050565b7f4e487b7100000000000000000000000000000000000000000000000000000000600052602160045260246000fd5b600481106110ce576110cd61108e565b5b50565b60008190506110df826110bd565b919050565b60006110ef826110d1565b9050919050565b6110ff816110e4565b82525050565b60006101a08301600083015161111e6000860182610ef5565b5060208301516111316020860182610f36565b5060408301516111446040860182610f36565b506060830151848203606086015261115c8282610f8b565b915050608083015184820360808601526111768282610f8b565b91505060a083015161118b60a0860182610ef5565b5060c083015161119e60c0860182610fd0565b5060e08301516111b160e0860182610fd0565b506101008301518482036101008601526111cb8282611030565b9150506101208301516111e2610120860182610ef5565b506101408301518482036101408601526111fc8282610f8b565b9150506101608301518482036101608601526112188282610f8b565b91505061018083015161122f6101808601826110f6565b508091505092915050565b60006112468383611105565b905092915050565b6000602082019050919050565b600061126682610ec9565b6112708185610ed4565b93508360208202850161128285610ee5565b8060005b858110156112be578484038952815161129f858261123a565b94506112aa8361124e565b925060208a01995050600181019050611286565b50829750879550505050505092915050565b600060208201905081810360008301526112ea818461125b565b905092915050565b600067ffffffffffffffff82111561130d5761130c610d21565b5b602082029050602081019050919050565b600080fd5b600080fd5b600080fd5b61133681610e95565b811461134157600080fd5b50565b6000815190506113538161132d565b92915050565b61136281610f24565b811461136d57600080fd5b50565b60008151905061137f81611359565b92915050565b600061139861139384610d9c565b610d81565b9050828152602081018484840111156113b4576113b3610d0b565b5b6113bf848285610f61565b509392505050565b600082601f8301126113dc576113db610d06565b5b81516113ec848260208601611385565b91505092915050565b6113fe81610fc4565b811461140957600080fd5b50565b60008151905061141b816113f5565b92915050565b600067ffffffffffffffff82111561143c5761143b610d21565b5b602082029050602081019050919050565b600061146061145b84611421565b610d81565b905080838252602082019050602084028301858111156114835761148261131e565b5b835b818110156114ac57806114988882611370565b845260208401935050602081019050611485565b5050509392505050565b600082601f8301126114cb576114ca610d06565b5b81516114db84826020860161144d565b91505092915050565b600481106114f157600080fd5b50565b600081519050611503816114e4565b92915050565b60006101a082840312156115205761151f611323565b5b61152b6101a0610d81565b9050600061153b84828501611344565b600083015250602061154f84828501611370565b602083015250604061156384828501611370565b604083015250606082015167ffffffffffffffff81111561158757611586611328565b5b611593848285016113c7565b606083015250608082015167ffffffffffffffff8111156115b7576115b6611328565b5b6115c3848285016113c7565b60808301525060a06115d784828501611344565b60a08301525060c06115eb8482850161140c565b60c08301525060e06115ff8482850161140c565b60e08301525061010082015167ffffffffffffffff81111561162457611623611328565b5b611630848285016114b6565b6101008301525061012061164684828501611344565b6101208301525061014082015167ffffffffffffffff81111561166c5761166b611328565b5b611678848285016113c7565b6101408301525061016082015167ffffffffffffffff81111561169e5761169d611328565b5b6116aa848285016113c7565b610160830152506101806116c0848285016114f4565b6101808301525092915050565b60006116e06116db846112f2565b610d81565b905080838252602082019050602084028301858111156117035761170261131e565b5b835b8181101561174a57805167ffffffffffffffff81111561172857611727610d06565b5b8086016117358982611509565b85526020850194505050602081019050611705565b5050509392505050565b600082601f83011261176957611768610d06565b5b81516117798482602086016116cd565b91505092915050565b60006020828403121561179857611797610cfc565b5b600082015167ffffffffffffffff8111156117b6576117b5610d01565b5b6117c284828501611754565b91505092915050565b600082825260208201905092915050565b60006117e782610f45565b6117f181856117cb565b9350611801818560208601610f61565b61180a81610d10565b840191505092915050565b6000602082019050818103600083015261182f81846117dc565b905092915050565b60006020828403121561184d5761184c610cfc565b5b600061185b84828501611370565b91505092915050565b7f4e487b7100000000000000000000000000000000000000000000000000000000600052603260045260246000fd5b7f4e487b7100000000000000000000000000000000000000000000000000000000600052601160045260246000fd5b60006118cd82610e95565b91507fffffffffffffffffffffffffffffffffffffffffffffffffffffffffffffffff82036118ff576118fe611893565b5b60018201905091905056fea2646970667358221220632e1cc26df0cf5effeca1b070ccaf6848123a7969df31adabe36812a59149dc64736f6c63430008120033",
  "linkReferences": {},
  "deployedLinkReferences": {}
}