{
  "_format": "hh-sol-artifact-1",
  "contractName": "Structures",
  "sourceName": "contracts/Structures.sol",
  "abi": [
    {
      "inputs": [],
      "stateMutability": "nonpayable",
      "type": "constructor"
    },
    {
      "anonymous": false,
      "inputs": [
        {
          "indexed": false,
          "internalType": "uint256",
          "name": "message",
          "type": "uint256"
        }
      ],
      "name": "LogString",
      "type": "event"
    },
    {
      "inputs": [
        {
          "internalType": "uint256",
          "name": "",
          "type": "uint256"
        }
      ],
      "name": "IDs",
      "outputs": [
        {
          "internalType": "bytes32",
          "name": "ID",
          "type": "bytes32"
        },
        {
          "internalType": "string",
          "name": "email",
          "type": "string"
        }
      ],
      "stateMutability": "view",
      "type": "function"
    },
    {
      "inputs": [
        {
          "internalType": "address",
          "name": "",
          "type": "address"
        }
      ],
      "name": "Keys",
      "outputs": [
        {
          "internalType": "bytes32",
          "name": "seed",
          "type": "bytes32"
        },
        {
          "internalType": "bytes32",
          "name": "password",
          "type": "bytes32"
        },
        {
          "internalType": "bytes",
          "name": "pubKey",
          "type": "bytes"
        }
      ],
      "stateMutability": "view",
      "type": "function"
    },
    {
      "inputs": [
        {
          "internalType": "address",
          "name": "userAddress",
          "type": "address"
        }
      ],
      "name": "addAdmin",
      "outputs": [],
      "stateMutability": "nonpayable",
      "type": "function"
    },
    {
      "inputs": [],
      "name": "admin",
      "outputs": [
        {
          "internalType": "address",
          "name": "",
          "type": "address"
        }
      ],
      "stateMutability": "view",
      "type": "function"
    },
    {
      "inputs": [
        {
          "internalType": "address",
          "name": "user",
          "type": "address"
        }
      ],
      "name": "checkUserExists",
      "outputs": [
        {
          "internalType": "bool",
          "name": "",
          "type": "bool"
        }
      ],
      "stateMutability": "view",
      "type": "function"
    },
    {
      "inputs": [
        {
          "internalType": "uint256",
          "name": "Id",
          "type": "uint256"
        },
        {
          "internalType": "string",
          "name": "name",
          "type": "string"
        },
        {
          "internalType": "string",
          "name": "email",
          "type": "string"
        },
        {
          "internalType": "address",
          "name": "walletAddress",
          "type": "address"
        },
        {
          "internalType": "bytes32",
          "name": "seed",
          "type": "bytes32"
        },
        {
          "internalType": "bytes32",
          "name": "password",
          "type": "bytes32"
        },
        {
          "internalType": "bytes",
          "name": "pubKey",
          "type": "bytes"
        }
      ],
      "name": "createUser",
      "outputs": [],
      "stateMutability": "nonpayable",
      "type": "function"
    },
    {
      "inputs": [
        {
          "internalType": "string",
          "name": "email",
          "type": "string"
        },
        {
          "internalType": "bytes32",
          "name": "Id",
          "type": "bytes32"
        }
      ],
      "name": "createUserId",
      "outputs": [],
      "stateMutability": "nonpayable",
      "type": "function"
    },
    {
      "inputs": [
        {
          "internalType": "address",
          "name": "walletAddress",
          "type": "address"
        }
      ],
      "name": "deleteUser",
      "outputs": [],
      "stateMutability": "nonpayable",
      "type": "function"
    },
    {
      "inputs": [
        {
          "internalType": "address",
          "name": "walletAddress",
          "type": "address"
        },
        {
          "internalType": "string",
          "name": "name",
          "type": "string"
        },
        {
          "internalType": "string",
          "name": "email",
          "type": "string"
        },
        {
          "internalType": "bool",
          "name": "isAdmin",
          "type": "bool"
        }
      ],
      "name": "editUser",
      "outputs": [],
      "stateMutability": "nonpayable",
      "type": "function"
    },
    {
      "inputs": [
        {
          "internalType": "string",
          "name": "email",
          "type": "string"
        }
      ],
      "name": "getAddress",
      "outputs": [
        {
          "internalType": "address",
          "name": "",
          "type": "address"
        }
      ],
      "stateMutability": "view",
      "type": "function"
    },
    {
      "inputs": [],
      "name": "getAllUsers",
      "outputs": [
        {
          "components": [
            {
              "internalType": "string",
              "name": "name",
              "type": "string"
            },
            {
              "internalType": "string",
              "name": "email",
              "type": "string"
            },
            {
              "internalType": "bool",
              "name": "exists",
              "type": "bool"
            },
            {
              "internalType": "address",
              "name": "walletAddress",
              "type": "address"
            },
            {
              "internalType": "bool",
              "name": "isAdmin",
              "type": "bool"
            }
          ],
          "internalType": "struct Structures.User[]",
          "name": "",
          "type": "tuple[]"
        }
      ],
      "stateMutability": "view",
      "type": "function"
    },
    {
      "inputs": [],
      "name": "getAllUsersIDs",
      "outputs": [
        {
          "components": [
            {
              "internalType": "bytes32",
              "name": "ID",
              "type": "bytes32"
            },
            {
              "internalType": "string",
              "name": "email",
              "type": "string"
            }
          ],
          "internalType": "struct Structures.ID[]",
          "name": "",
          "type": "tuple[]"
        }
      ],
      "stateMutability": "view",
      "type": "function"
    },
    {
      "inputs": [],
      "name": "getAllUsersIDsBackup",
      "outputs": [
        {
          "components": [
            {
              "internalType": "bytes32",
              "name": "ID",
              "type": "bytes32"
            },
            {
              "internalType": "string",
              "name": "email",
              "type": "string"
            }
          ],
          "internalType": "struct Structures.ID[]",
          "name": "",
          "type": "tuple[]"
        }
      ],
      "stateMutability": "view",
      "type": "function"
    },
    {
      "inputs": [
        {
          "internalType": "address",
          "name": "adresse",
          "type": "address"
        }
      ],
      "name": "getEmail",
      "outputs": [
        {
          "internalType": "string",
          "name": "",
          "type": "string"
        }
      ],
      "stateMutability": "view",
      "type": "function"
    },
    {
      "inputs": [
        {
          "internalType": "address",
          "name": "adresse",
          "type": "address"
        }
      ],
      "name": "getName",
      "outputs": [
        {
          "internalType": "string",
          "name": "",
          "type": "string"
        }
      ],
      "stateMutability": "view",
      "type": "function"
    },
    {
      "inputs": [
        {
          "internalType": "address",
          "name": "receiver",
          "type": "address"
        }
      ],
      "name": "getRecieverPubKey",
      "outputs": [
        {
          "internalType": "bytes",
          "name": "",
          "type": "bytes"
        }
      ],
      "stateMutability": "view",
      "type": "function"
    },
    {
      "inputs": [
        {
          "internalType": "address",
          "name": "user",
          "type": "address"
        }
      ],
      "name": "isAdmin",
      "outputs": [
        {
          "internalType": "bool",
          "name": "",
          "type": "bool"
        }
      ],
      "stateMutability": "view",
      "type": "function"
    },
    {
      "inputs": [
        {
          "internalType": "address",
          "name": "userAddress",
          "type": "address"
        }
      ],
      "name": "makeAdmin",
      "outputs": [],
      "stateMutability": "nonpayable",
      "type": "function"
    },
    {
      "inputs": [
        {
          "internalType": "address",
          "name": "userAddress",
          "type": "address"
        }
      ],
      "name": "removeAdmin",
      "outputs": [],
      "stateMutability": "nonpayable",
      "type": "function"
    },
    {
      "inputs": [
        {
          "internalType": "uint256",
          "name": "",
          "type": "uint256"
        }
      ],
      "name": "userAddresses",
      "outputs": [
        {
          "internalType": "address",
          "name": "",
          "type": "address"
        }
      ],
      "stateMutability": "view",
      "type": "function"
    },
    {
      "inputs": [
        {
          "internalType": "address",
          "name": "",
          "type": "address"
        }
      ],
      "name": "users",
      "outputs": [
        {
          "internalType": "string",
          "name": "name",
          "type": "string"
        },
        {
          "internalType": "string",
          "name": "email",
          "type": "string"
        },
        {
          "internalType": "bool",
          "name": "exists",
          "type": "bool"
        },
        {
          "internalType": "address",
          "name": "walletAddress",
          "type": "address"
        },
        {
          "internalType": "bool",
          "name": "isAdmin",
          "type": "bool"
        }
      ],
      "stateMutability": "view",
      "type": "function"
    },
    {
      "inputs": [
        {
          "internalType": "address",
          "name": "sender",
          "type": "address"
        },
        {
          "internalType": "bytes32",
          "name": "password",
          "type": "bytes32"
        }
      ],
      "name": "verifyPassword",
      "outputs": [
        {
          "internalType": "bool",
          "name": "",
          "type": "bool"
        }
      ],
      "stateMutability": "view",
      "type": "function"
    },
    {
      "inputs": [
        {
          "internalType": "address",
          "name": "sender",
          "type": "address"
        },
        {
          "internalType": "bytes32",
          "name": "seed",
          "type": "bytes32"
        }
      ],
      "name": "verifySeed",
      "outputs": [
        {
          "internalType": "bool",
          "name": "",
          "type": "bool"
        }
      ],
      "stateMutability": "view",
      "type": "function"
    },
    {
      "inputs": [
        {
          "internalType": "uint256",
          "name": "id",
          "type": "uint256"
        },
        {
          "internalType": "string",
          "name": "email",
          "type": "string"
        }
      ],
      "name": "verifyUser",
      "outputs": [
        {
          "internalType": "bool",
          "name": "",
          "type": "bool"
        }
      ],
      "stateMutability": "view",
      "type": "function"
    }
  ],
  "bytecode": "0x608060405234801561001057600080fd5b50737b60ed2a82267ab814256d3ab977ae5434d01d8b600460006101000a81548173ffffffffffffffffffffffffffffffffffffffff021916908373ffffffffffffffffffffffffffffffffffffffff160217905550613d0f806100756000396000f3fe608060405234801561001057600080fd5b50600436106101585760003560e01c8063502c9bd5116100c3578063c28fa4391161007c578063c28fa4391461044b578063d6d4736814610467578063e2842d7914610485578063effc99cd146104a3578063f77cbff0146104d4578063f851a440146104f257610158565b8063502c9bd51461034f5780635c60f2261461037f5780635fd4b08a1461039b57806370480275146103cb578063a87430ba146103e7578063bf40fac11461041b57610158565b806324d7806c1161011557806324d7806c1461025757806330dbc8ec1461028757806339a4ae6c146102b75780633e07238a146102d3578063472905ca146103035780634fa7353c1461031f57610158565b80631112bdf21461015d578063133f50f51461018d57806313f23927146101bd5780631785f53c146101ed5780631e8fbd9b146102095780631f4b37ff14610225575b600080fd5b61017760048036038101906101729190612743565b610510565b60405161018491906127ba565b60405180910390f35b6101a760048036038101906101a29190612833565b6106e0565b6040516101b491906127ba565b60405180910390f35b6101d760048036038101906101d29190612896565b61073a565b6040516101e491906127ba565b60405180910390f35b61020760048036038101906102029190612833565b6107ca565b005b610223600480360381019061021e91906128d6565b610910565b005b61023f600480360381019061023a9190612833565b610a0c565b60405161024e939291906129c0565b60405180910390f35b610271600480360381019061026c9190612833565b610abe565b60405161027e91906127ba565b60405180910390f35b6102a1600480360381019061029c9190612896565b610b14565b6040516102ae91906127ba565b60405180910390f35b6102d160048036038101906102cc9190612a9f565b610ba4565b005b6102ed60048036038101906102e89190612833565b6110a6565b6040516102fa9190612b95565b60405180910390f35b61031d60048036038101906103189190612833565b611180565b005b61033960048036038101906103349190612833565b61126e565b6040516103469190612c0c565b60405180910390f35b61036960048036038101906103649190612c2e565b611391565b6040516103769190612c6a565b60405180910390f35b61039960048036038101906103949190612833565b6113d0565b005b6103b560048036038101906103b09190612833565b611876565b6040516103c29190612c0c565b60405180910390f35b6103e560048036038101906103e09190612833565b611999565b005b61040160048036038101906103fc9190612833565b611a84565b604051610412959493929190612c85565b60405180910390f35b61043560048036038101906104309190612ce6565b611c04565b6040516104429190612c6a565b60405180910390f35b61046560048036038101906104609190612d5b565b611c4c565b005b61046f611e68565b60405161047c9190612f52565b60405180910390f35b61048d611fd8565b60405161049a91906130d1565b60405180910390f35b6104bd60048036038101906104b89190612c2e565b6122b8565b6040516104cb9291906130f3565b60405180910390f35b6104dc612374565b6040516104e99190612f52565b60405180910390f35b6104fa61246f565b6040516105079190612c6a565b60405180910390f35b6000806002846040516020016105269190613132565b6040516020818303038152906040526040516105429190613189565b602060405180830381855afa15801561055f573d6000803e3d6000fd5b5050506040513d601f19601f8201168201806040525081019061058291906131b5565b905060005b60008054905081101561069e5781600082815481106105a9576105a86131e2565b5b90600052602060002090600202016000015414801561067b575061067a600082815481106105da576105d96131e2565b5b906000526020600020906002020160010180546105f690613240565b80601f016020809104026020016040519081016040528092919081815260200182805461062290613240565b801561066f5780601f106106445761010080835404028352916020019161066f565b820191906000526020600020905b81548152906001019060200180831161065257829003601f168201915b505050505085612495565b5b1561068b576001925050506106da565b8080610696906132a0565b915050610587565b506040517f08c379a00000000000000000000000000000000000000000000000000000000081526004016106d19061335a565b60405180910390fd5b92915050565b600080600260008473ffffffffffffffffffffffffffffffffffffffff1673ffffffffffffffffffffffffffffffffffffffff168152602001908152602001600020600101805461073090613240565b9050119050919050565b600081600160008573ffffffffffffffffffffffffffffffffffffffff1673ffffffffffffffffffffffffffffffffffffffff16815260200190815260200160002060000154146107c0576040517f08c379a00000000000000000000000000000000000000000000000000000000081526004016107b7906133c6565b60405180910390fd5b6001905092915050565b600460009054906101000a900473ffffffffffffffffffffffffffffffffffffffff1673ffffffffffffffffffffffffffffffffffffffff163373ffffffffffffffffffffffffffffffffffffffff161461085a576040517f08c379a000000000000000000000000000000000000000000000000000000000815260040161085190613458565b60405180910390fd5b6000600560008373ffffffffffffffffffffffffffffffffffffffff1673ffffffffffffffffffffffffffffffffffffffff16815260200190815260200160002060006101000a81548160ff0219169083151502179055506000600260008373ffffffffffffffffffffffffffffffffffffffff1673ffffffffffffffffffffffffffffffffffffffff16815260200190815260200160002060020160156101000a81548160ff02191690831515021790555050565b600460009054906101000a900473ffffffffffffffffffffffffffffffffffffffff1673ffffffffffffffffffffffffffffffffffffffff163373ffffffffffffffffffffffffffffffffffffffff16146109a0576040517f08c379a000000000000000000000000000000000000000000000000000000000815260040161099790613458565b60405180910390fd5b600060405180604001604052808381526020018481525090506000819080600181540180825580915050600190039060005260206000209060020201600090919091909150600082015181600001556020820151816001019081610a049190613624565b505050505050565b6001602052806000526040600020600091509050806000015490806001015490806002018054610a3b90613240565b80601f0160208091040260200160405190810160405280929190818152602001828054610a6790613240565b8015610ab45780601f10610a8957610100808354040283529160200191610ab4565b820191906000526020600020905b815481529060010190602001808311610a9757829003601f168201915b5050505050905083565b6000600560008373ffffffffffffffffffffffffffffffffffffffff1673ffffffffffffffffffffffffffffffffffffffff16815260200190815260200160002060009054906101000a900460ff169050919050565b600081600160008573ffffffffffffffffffffffffffffffffffffffff1673ffffffffffffffffffffffffffffffffffffffff1681526020019081526020016000206001015414610b9a576040517f08c379a0000000000000000000000000000000000000000000000000000000008152600401610b9190613742565b60405180910390fd5b6001905092915050565b6000865111610be8576040517f08c379a0000000000000000000000000000000000000000000000000000000008152600401610bdf906137ae565b60405180910390fd5b60006040518060a001604052808881526020018781526020016001151581526020018673ffffffffffffffffffffffffffffffffffffffff1681526020016000151581525090506000604051806060016040528086815260200185815260200184815250905081600260008873ffffffffffffffffffffffffffffffffffffffff1673ffffffffffffffffffffffffffffffffffffffff1681526020019081526020016000206000820151816000019081610ca39190613624565b506020820151816001019081610cb99190613624565b5060408201518160020160006101000a81548160ff02191690831515021790555060608201518160020160016101000a81548173ffffffffffffffffffffffffffffffffffffffff021916908373ffffffffffffffffffffffffffffffffffffffff16021790555060808201518160020160156101000a81548160ff0219169083151502179055509050506003869080600181540180825580915050600190039060005260206000200160009091909190916101000a81548173ffffffffffffffffffffffffffffffffffffffff021916908373ffffffffffffffffffffffffffffffffffffffff16021790555085600689604051610db8919061380a565b908152602001604051809103902060006101000a81548173ffffffffffffffffffffffffffffffffffffffff021916908373ffffffffffffffffffffffffffffffffffffffff16021790555085600788604051610e15919061380a565b908152602001604051809103902060006101000a81548173ffffffffffffffffffffffffffffffffffffffff021916908373ffffffffffffffffffffffffffffffffffffffff16021790555080600160008873ffffffffffffffffffffffffffffffffffffffff1673ffffffffffffffffffffffffffffffffffffffff16815260200190815260200160002060008201518160000155602082015181600101556040820151816002019081610eca919061387c565b50905050600060028a604051602001610ee39190613132565b604051602081830303815290604052604051610eff9190613189565b602060405180830381855afa158015610f1c573d6000803e3d6000fd5b5050506040513d601f19601f82011682018060405250810190610f3f91906131b5565b905060005b600080549050811015611061578160008281548110610f6657610f656131e2565b5b9060005260206000209060020201600001540361104e5760006001600080549050610f91919061394e565b90508082146110015760008181548110610fae57610fad6131e2565b5b906000526020600020906002020160008381548110610fd057610fcf6131e2565b5b90600052602060002090600202016000820154816000015560018201816001019081610ffc9190613998565b509050505b600080548061101357611012613a80565b5b600190038181906000526020600020906002020160008082016000905560018201600061104091906124b0565b50509055505050505061109d565b8080611059906132a0565b915050610f44565b506040517f08c379a000000000000000000000000000000000000000000000000000000000815260040161109490613afb565b60405180910390fd5b50505050505050565b60606000600160008473ffffffffffffffffffffffffffffffffffffffff1673ffffffffffffffffffffffffffffffffffffffff16815260200190815260200160002060020180546110f790613240565b80601f016020809104026020016040519081016040528092919081815260200182805461112390613240565b80156111705780601f1061114557610100808354040283529160200191611170565b820191906000526020600020905b81548152906001019060200180831161115357829003601f168201915b5050505050905080915050919050565b600460009054906101000a900473ffffffffffffffffffffffffffffffffffffffff1673ffffffffffffffffffffffffffffffffffffffff163373ffffffffffffffffffffffffffffffffffffffff1614611210576040517f08c379a000000000000000000000000000000000000000000000000000000000815260040161120790613458565b60405180910390fd5b6001600260008373ffffffffffffffffffffffffffffffffffffffff1673ffffffffffffffffffffffffffffffffffffffff16815260200190815260200160002060020160156101000a81548160ff02191690831515021790555050565b60606001151561127d836106e0565b1515146112bf576040517f08c379a00000000000000000000000000000000000000000000000000000000081526004016112b690613b8d565b60405180910390fd5b600260008373ffffffffffffffffffffffffffffffffffffffff1673ffffffffffffffffffffffffffffffffffffffff168152602001908152602001600020600101805461130c90613240565b80601f016020809104026020016040519081016040528092919081815260200182805461133890613240565b80156113855780601f1061135a57610100808354040283529160200191611385565b820191906000526020600020905b81548152906001019060200180831161136857829003601f168201915b50505050509050919050565b600381815481106113a157600080fd5b906000526020600020016000915054906101000a900473ffffffffffffffffffffffffffffffffffffffff1681565b600460009054906101000a900473ffffffffffffffffffffffffffffffffffffffff1673ffffffffffffffffffffffffffffffffffffffff163373ffffffffffffffffffffffffffffffffffffffff1614611460576040517f08c379a000000000000000000000000000000000000000000000000000000000815260040161145790613458565b60405180910390fd5b600073ffffffffffffffffffffffffffffffffffffffff168173ffffffffffffffffffffffffffffffffffffffff16036114cf576040517f08c379a00000000000000000000000000000000000000000000000000000000081526004016114c690613c1f565b60405180910390fd5b600260008273ffffffffffffffffffffffffffffffffffffffff1673ffffffffffffffffffffffffffffffffffffffff1681526020019081526020016000206000808201600061151f91906124b0565b60018201600061152f91906124b0565b6002820160006101000a81549060ff02191690556002820160016101000a81549073ffffffffffffffffffffffffffffffffffffffff02191690556002820160156101000a81549060ff021916905550506006600260008373ffffffffffffffffffffffffffffffffffffffff1673ffffffffffffffffffffffffffffffffffffffff1681526020019081526020016000206000016040516115d19190613cc2565b908152602001604051809103902060006101000a81549073ffffffffffffffffffffffffffffffffffffffff02191690556007600260008373ffffffffffffffffffffffffffffffffffffffff1673ffffffffffffffffffffffffffffffffffffffff1681526020019081526020016000206001016040516116539190613cc2565b908152602001604051809103902060006101000a81549073ffffffffffffffffffffffffffffffffffffffff0219169055600160008273ffffffffffffffffffffffffffffffffffffffff1673ffffffffffffffffffffffffffffffffffffffff16815260200190815260200160002060008082016000905560018201600090556002820160006116e491906124f0565b505060005b600380549050811015611872578173ffffffffffffffffffffffffffffffffffffffff1660038281548110611721576117206131e2565b5b9060005260206000200160009054906101000a900473ffffffffffffffffffffffffffffffffffffffff1673ffffffffffffffffffffffffffffffffffffffff160361185f576003600160038054905061177b919061394e565b8154811061178c5761178b6131e2565b5b9060005260206000200160009054906101000a900473ffffffffffffffffffffffffffffffffffffffff16600382815481106117cb576117ca6131e2565b5b9060005260206000200160006101000a81548173ffffffffffffffffffffffffffffffffffffffff021916908373ffffffffffffffffffffffffffffffffffffffff160217905550600380548061182557611824613a80565b5b6001900381819060005260206000200160006101000a81549073ffffffffffffffffffffffffffffffffffffffff02191690559055611872565b808061186a906132a0565b9150506116e9565b5050565b606060011515611885836106e0565b1515146118c7576040517f08c379a00000000000000000000000000000000000000000000000000000000081526004016118be90613b8d565b60405180910390fd5b600260008373ffffffffffffffffffffffffffffffffffffffff1673ffffffffffffffffffffffffffffffffffffffff168152602001908152602001600020600001805461191490613240565b80601f016020809104026020016040519081016040528092919081815260200182805461194090613240565b801561198d5780601f106119625761010080835404028352916020019161198d565b820191906000526020600020905b81548152906001019060200180831161197057829003601f168201915b50505050509050919050565b600460009054906101000a900473ffffffffffffffffffffffffffffffffffffffff1673ffffffffffffffffffffffffffffffffffffffff163373ffffffffffffffffffffffffffffffffffffffff1614611a29576040517f08c379a0000000000000000000000000000000000000000000000000000000008152600401611a2090613458565b60405180910390fd5b6001600560008373ffffffffffffffffffffffffffffffffffffffff1673ffffffffffffffffffffffffffffffffffffffff16815260200190815260200160002060006101000a81548160ff02191690831515021790555050565b6002602052806000526040600020600091509050806000018054611aa790613240565b80601f0160208091040260200160405190810160405280929190818152602001828054611ad390613240565b8015611b205780601f10611af557610100808354040283529160200191611b20565b820191906000526020600020905b815481529060010190602001808311611b0357829003601f168201915b505050505090806001018054611b3590613240565b80601f0160208091040260200160405190810160405280929190818152602001828054611b6190613240565b8015611bae5780601f10611b8357610100808354040283529160200191611bae565b820191906000526020600020905b815481529060010190602001808311611b9157829003601f168201915b5050505050908060020160009054906101000a900460ff16908060020160019054906101000a900473ffffffffffffffffffffffffffffffffffffffff16908060020160159054906101000a900460ff16905085565b6000600782604051611c16919061380a565b908152602001604051809103902060009054906101000a900473ffffffffffffffffffffffffffffffffffffffff169050919050565b600460009054906101000a900473ffffffffffffffffffffffffffffffffffffffff1673ffffffffffffffffffffffffffffffffffffffff163373ffffffffffffffffffffffffffffffffffffffff1614611cdc576040517f08c379a0000000000000000000000000000000000000000000000000000000008152600401611cd390613458565b60405180910390fd5b611ce5846106e0565b611d24576040517f08c379a0000000000000000000000000000000000000000000000000000000008152600401611d1b90613c1f565b60405180910390fd5b6000600260008673ffffffffffffffffffffffffffffffffffffffff1673ffffffffffffffffffffffffffffffffffffffff168152602001908152602001600020905083816000019081611d789190613624565b5082816001019081611d8a9190613624565b50818160020160156101000a81548160ff02191690831515021790555084600685604051611db8919061380a565b908152602001604051809103902060006101000a81548173ffffffffffffffffffffffffffffffffffffffff021916908373ffffffffffffffffffffffffffffffffffffffff16021790555084600784604051611e15919061380a565b908152602001604051809103902060006101000a81548173ffffffffffffffffffffffffffffffffffffffff021916908373ffffffffffffffffffffffffffffffffffffffff1602179055505050505050565b60606000808054905067ffffffffffffffff811115611e8a57611e89612618565b5b604051908082528060200260200182016040528015611ec357816020015b611eb0612530565b815260200190600190039081611ea85790505b50905060005b600080549050811015611fd05760008181548110611eea57611ee96131e2565b5b906000526020600020906002020160405180604001604052908160008201548152602001600182018054611f1d90613240565b80601f0160208091040260200160405190810160405280929190818152602001828054611f4990613240565b8015611f965780601f10611f6b57610100808354040283529160200191611f96565b820191906000526020600020905b815481529060010190602001808311611f7957829003601f168201915b505050505081525050828281518110611fb257611fb16131e2565b5b60200260200101819052508080611fc8906132a0565b915050611ec9565b508091505090565b6060600060038054905067ffffffffffffffff811115611ffb57611ffa612618565b5b60405190808252806020026020018201604052801561203457816020015b61202161254d565b8152602001906001900390816120195790505b50905060005b6003805490508110156122b057600260006003838154811061205f5761205e6131e2565b5b9060005260206000200160009054906101000a900473ffffffffffffffffffffffffffffffffffffffff1673ffffffffffffffffffffffffffffffffffffffff1673ffffffffffffffffffffffffffffffffffffffff1681526020019081526020016000206040518060a00160405290816000820180546120df90613240565b80601f016020809104026020016040519081016040528092919081815260200182805461210b90613240565b80156121585780601f1061212d57610100808354040283529160200191612158565b820191906000526020600020905b81548152906001019060200180831161213b57829003601f168201915b5050505050815260200160018201805461217190613240565b80601f016020809104026020016040519081016040528092919081815260200182805461219d90613240565b80156121ea5780601f106121bf576101008083540402835291602001916121ea565b820191906000526020600020905b8154815290600101906020018083116121cd57829003601f168201915b505050505081526020016002820160009054906101000a900460ff161515151581526020016002820160019054906101000a900473ffffffffffffffffffffffffffffffffffffffff1673ffffffffffffffffffffffffffffffffffffffff1673ffffffffffffffffffffffffffffffffffffffff1681526020016002820160159054906101000a900460ff161515151581525050828281518110612292576122916131e2565b5b602002602001018190525080806122a8906132a0565b91505061203a565b508091505090565b600081815481106122c857600080fd5b90600052602060002090600202016000915090508060000154908060010180546122f190613240565b80601f016020809104026020016040519081016040528092919081815260200182805461231d90613240565b801561236a5780601f1061233f5761010080835404028352916020019161236a565b820191906000526020600020905b81548152906001019060200180831161234d57829003601f168201915b5050505050905082565b60606000805480602002602001604051908101604052809291908181526020016000905b828210156124665783829060005260206000209060020201604051806040016040529081600082015481526020016001820180546123d590613240565b80601f016020809104026020016040519081016040528092919081815260200182805461240190613240565b801561244e5780601f106124235761010080835404028352916020019161244e565b820191906000526020600020905b81548152906001019060200180831161243157829003601f168201915b50505050508152505081526020019060010190612398565b50505050905090565b600460009054906101000a900473ffffffffffffffffffffffffffffffffffffffff1681565b60008180519060200120838051906020012014905092915050565b5080546124bc90613240565b6000825580601f106124ce57506124ed565b601f0160209004906000526020600020908101906124ec9190612596565b5b50565b5080546124fc90613240565b6000825580601f1061250e575061252d565b601f01602090049060005260206000209081019061252c9190612596565b5b50565b604051806040016040528060008019168152602001606081525090565b6040518060a001604052806060815260200160608152602001600015158152602001600073ffffffffffffffffffffffffffffffffffffffff1681526020016000151581525090565b5b808211156125af576000816000905550600101612597565b5090565b6000604051905090565b600080fd5b600080fd5b6000819050919050565b6125da816125c7565b81146125e557600080fd5b50565b6000813590506125f7816125d1565b92915050565b600080fd5b600080fd5b6000601f19601f8301169050919050565b7f4e487b7100000000000000000000000000000000000000000000000000000000600052604160045260246000fd5b61265082612607565b810181811067ffffffffffffffff8211171561266f5761266e612618565b5b80604052505050565b60006126826125b3565b905061268e8282612647565b919050565b600067ffffffffffffffff8211156126ae576126ad612618565b5b6126b782612607565b9050602081019050919050565b82818337600083830152505050565b60006126e66126e184612693565b612678565b90508281526020810184848401111561270257612701612602565b5b61270d8482856126c4565b509392505050565b600082601f83011261272a576127296125fd565b5b813561273a8482602086016126d3565b91505092915050565b6000806040838503121561275a576127596125bd565b5b6000612768858286016125e8565b925050602083013567ffffffffffffffff811115612789576127886125c2565b5b61279585828601612715565b9150509250929050565b60008115159050919050565b6127b48161279f565b82525050565b60006020820190506127cf60008301846127ab565b92915050565b600073ffffffffffffffffffffffffffffffffffffffff82169050919050565b6000612800826127d5565b9050919050565b612810816127f5565b811461281b57600080fd5b50565b60008135905061282d81612807565b92915050565b600060208284031215612849576128486125bd565b5b60006128578482850161281e565b91505092915050565b6000819050919050565b61287381612860565b811461287e57600080fd5b50565b6000813590506128908161286a565b92915050565b600080604083850312156128ad576128ac6125bd565b5b60006128bb8582860161281e565b92505060206128cc85828601612881565b9150509250929050565b600080604083850312156128ed576128ec6125bd565b5b600083013567ffffffffffffffff81111561290b5761290a6125c2565b5b61291785828601612715565b925050602061292885828601612881565b9150509250929050565b61293b81612860565b82525050565b600081519050919050565b600082825260208201905092915050565b60005b8381101561297b578082015181840152602081019050612960565b60008484015250505050565b600061299282612941565b61299c818561294c565b93506129ac81856020860161295d565b6129b581612607565b840191505092915050565b60006060820190506129d56000830186612932565b6129e26020830185612932565b81810360408301526129f48184612987565b9050949350505050565b600067ffffffffffffffff821115612a1957612a18612618565b5b612a2282612607565b9050602081019050919050565b6000612a42612a3d846129fe565b612678565b905082815260208101848484011115612a5e57612a5d612602565b5b612a698482856126c4565b509392505050565b600082601f830112612a8657612a856125fd565b5b8135612a96848260208601612a2f565b91505092915050565b600080600080600080600060e0888a031215612abe57612abd6125bd565b5b6000612acc8a828b016125e8565b975050602088013567ffffffffffffffff811115612aed57612aec6125c2565b5b612af98a828b01612715565b965050604088013567ffffffffffffffff811115612b1a57612b196125c2565b5b612b268a828b01612715565b9550506060612b378a828b0161281e565b9450506080612b488a828b01612881565b93505060a0612b598a828b01612881565b92505060c088013567ffffffffffffffff811115612b7a57612b796125c2565b5b612b868a828b01612a71565b91505092959891949750929550565b60006020820190508181036000830152612baf8184612987565b905092915050565b600081519050919050565b600082825260208201905092915050565b6000612bde82612bb7565b612be88185612bc2565b9350612bf881856020860161295d565b612c0181612607565b840191505092915050565b60006020820190508181036000830152612c268184612bd3565b905092915050565b600060208284031215612c4457612c436125bd565b5b6000612c52848285016125e8565b91505092915050565b612c64816127f5565b82525050565b6000602082019050612c7f6000830184612c5b565b92915050565b600060a0820190508181036000830152612c9f8188612bd3565b90508181036020830152612cb38187612bd3565b9050612cc260408301866127ab565b612ccf6060830185612c5b565b612cdc60808301846127ab565b9695505050505050565b600060208284031215612cfc57612cfb6125bd565b5b600082013567ffffffffffffffff811115612d1a57612d196125c2565b5b612d2684828501612715565b91505092915050565b612d388161279f565b8114612d4357600080fd5b50565b600081359050612d5581612d2f565b92915050565b60008060008060808587031215612d7557612d746125bd565b5b6000612d838782880161281e565b945050602085013567ffffffffffffffff811115612da457612da36125c2565b5b612db087828801612715565b935050604085013567ffffffffffffffff811115612dd157612dd06125c2565b5b612ddd87828801612715565b9250506060612dee87828801612d46565b91505092959194509250565b600081519050919050565b600082825260208201905092915050565b6000819050602082019050919050565b612e2f81612860565b82525050565b600082825260208201905092915050565b6000612e5182612bb7565b612e5b8185612e35565b9350612e6b81856020860161295d565b612e7481612607565b840191505092915050565b6000604083016000830151612e976000860182612e26565b5060208301518482036020860152612eaf8282612e46565b9150508091505092915050565b6000612ec88383612e7f565b905092915050565b6000602082019050919050565b6000612ee882612dfa565b612ef28185612e05565b935083602082028501612f0485612e16565b8060005b85811015612f405784840389528151612f218582612ebc565b9450612f2c83612ed0565b925060208a01995050600181019050612f08565b50829750879550505050505092915050565b60006020820190508181036000830152612f6c8184612edd565b905092915050565b600081519050919050565b600082825260208201905092915050565b6000819050602082019050919050565b612fa98161279f565b82525050565b612fb8816127f5565b82525050565b600060a0830160008301518482036000860152612fdb8282612e46565b91505060208301518482036020860152612ff58282612e46565b915050604083015161300a6040860182612fa0565b50606083015161301d6060860182612faf565b5060808301516130306080860182612fa0565b508091505092915050565b60006130478383612fbe565b905092915050565b6000602082019050919050565b600061306782612f74565b6130718185612f7f565b93508360208202850161308385612f90565b8060005b858110156130bf57848403895281516130a0858261303b565b94506130ab8361304f565b925060208a01995050600181019050613087565b50829750879550505050505092915050565b600060208201905081810360008301526130eb818461305c565b905092915050565b60006040820190506131086000830185612932565b818103602083015261311a8184612bd3565b90509392505050565b61312c816125c7565b82525050565b60006020820190506131476000830184613123565b92915050565b600081905092915050565b600061316382612941565b61316d818561314d565b935061317d81856020860161295d565b80840191505092915050565b60006131958284613158565b915081905092915050565b6000815190506131af8161286a565b92915050565b6000602082840312156131cb576131ca6125bd565b5b60006131d9848285016131a0565b91505092915050565b7f4e487b7100000000000000000000000000000000000000000000000000000000600052603260045260246000fd5b7f4e487b7100000000000000000000000000000000000000000000000000000000600052602260045260246000fd5b6000600282049050600182168061325857607f821691505b60208210810361326b5761326a613211565b5b50919050565b7f4e487b7100000000000000000000000000000000000000000000000000000000600052601160045260246000fd5b60006132ab826125c7565b91507fffffffffffffffffffffffffffffffffffffffffffffffffffffffffffffffff82036132dd576132dc613271565b5b600182019050919050565b7f596f7520646f6e27742068617665207065726d697373696f6e20746f2063726560008201527f61746520616e206163636f756e74210000000000000000000000000000000000602082015250565b6000613344602f83612bc2565b915061334f826132e8565b604082019050919050565b6000602082019050818103600083015261337381613337565b9050919050565b7f496e76616c696420536565640000000000000000000000000000000000000000600082015250565b60006133b0600c83612bc2565b91506133bb8261337a565b602082019050919050565b600060208201905081810360008301526133df816133a3565b9050919050565b7f4f6e6c792061646d696e2063616e20706572666f726d2074686973206163746960008201527f6f6e000000000000000000000000000000000000000000000000000000000000602082015250565b6000613442602283612bc2565b915061344d826133e6565b604082019050919050565b6000602082019050818103600083015261347181613435565b9050919050565b60008190508160005260206000209050919050565b60006020601f8301049050919050565b600082821b905092915050565b6000600883026134da7fffffffffffffffffffffffffffffffffffffffffffffffffffffffffffffffff8261349d565b6134e4868361349d565b95508019841693508086168417925050509392505050565b6000819050919050565b600061352161351c613517846125c7565b6134fc565b6125c7565b9050919050565b6000819050919050565b61353b83613506565b61354f61354782613528565b8484546134aa565b825550505050565b600090565b613564613557565b61356f818484613532565b505050565b5b818110156135935761358860008261355c565b600181019050613575565b5050565b601f8211156135d8576135a981613478565b6135b28461348d565b810160208510156135c1578190505b6135d56135cd8561348d565b830182613574565b50505b505050565b600082821c905092915050565b60006135fb600019846008026135dd565b1980831691505092915050565b600061361483836135ea565b9150826002028217905092915050565b61362d82612bb7565b67ffffffffffffffff81111561364657613645612618565b5b6136508254613240565b61365b828285613597565b600060209050601f83116001811461368e576000841561367c578287015190505b6136868582613608565b8655506136ee565b601f19841661369c86613478565b60005b828110156136c45784890151825560018201915060208501945060208101905061369f565b868310156136e157848901516136dd601f8916826135ea565b8355505b6001600288020188555050505b505050505050565b7f496e76616c69642050617373776f726400000000000000000000000000000000600082015250565b600061372c601083612bc2565b9150613737826136f6565b602082019050919050565b6000602082019050818103600083015261375b8161371f565b9050919050565b7f596f75206861766520746f207370656369667920796f7572206e616d65202100600082015250565b6000613798601f83612bc2565b91506137a382613762565b602082019050919050565b600060208201905081810360008301526137c78161378b565b9050919050565b600081905092915050565b60006137e482612bb7565b6137ee81856137ce565b93506137fe81856020860161295d565b80840191505092915050565b600061381682846137d9565b915081905092915050565b60008190508160005260206000209050919050565b601f8211156138775761384881613821565b6138518461348d565b81016020851015613860578190505b61387461386c8561348d565b830182613574565b50505b505050565b61388582612941565b67ffffffffffffffff81111561389e5761389d612618565b5b6138a88254613240565b6138b3828285613836565b600060209050601f8311600181146138e657600084156138d4578287015190505b6138de8582613608565b865550613946565b601f1984166138f486613821565b60005b8281101561391c578489015182556001820191506020850194506020810190506138f7565b868310156139395784890151613935601f8916826135ea565b8355505b6001600288020188555050505b505050505050565b6000613959826125c7565b9150613964836125c7565b925082820390508181111561397c5761397b613271565b5b92915050565b60008154905061399181613240565b9050919050565b8181036139a6575050613a7e565b6139af82613982565b67ffffffffffffffff8111156139c8576139c7612618565b5b6139d28254613240565b6139dd828285613597565b6000601f831160018114613a0c57600084156139fa578287015490505b613a048582613608565b865550613a77565b601f198416613a1a87613478565b9650613a2586613478565b60005b82811015613a4d57848901548255600182019150600185019450602081019050613a28565b86831015613a6a5784890154613a66601f8916826135ea565b8355505b6001600288020188555050505b5050505050505b565b7f4e487b7100000000000000000000000000000000000000000000000000000000600052603160045260246000fd5b7f4944206e6f7420666f756e640000000000000000000000000000000000000000600082015250565b6000613ae5600c83612bc2565b9150613af082613aaf565b602082019050919050565b60006020820190508181036000830152613b1481613ad8565b9050919050565b7f55736572207769746820676976656e206164647265737320646f6e277420657860008201527f6973740000000000000000000000000000000000000000000000000000000000602082015250565b6000613b77602383612bc2565b9150613b8282613b1b565b604082019050919050565b60006020820190508181036000830152613ba681613b6a565b9050919050565b7f55736572207769746820676976656e206164647265737320646f6573206e6f7460008201527f2065786973742e00000000000000000000000000000000000000000000000000602082015250565b6000613c09602783612bc2565b9150613c1482613bad565b604082019050919050565b60006020820190508181036000830152613c3881613bfc565b9050919050565b60008154613c4c81613240565b613c5681866137ce565b94506001821660008114613c715760018114613c8657613cb9565b60ff1983168652811515820286019350613cb9565b613c8f85613478565b60005b83811015613cb157815481890152600182019150602081019050613c92565b838801955050505b50505092915050565b6000613cce8284613c3f565b91508190509291505056fea26469706673582212200345ab52628a73015cfad9da26d1b4f949acc511c3614be42ad9ac55c627f04964736f6c63430008120033",
  "linkReferences": {},
  "deployedLinkReferences": {}
}