{
  "_format": "hh-sol-artifact-1",
  "contractName": "Structures",
  "sourceName": "contracts/Structures.sol",
  "abi": [
    {
      "inputs": [],
      "stateMutability": "nonpayable",
      "type": "constructor"
    },
    {
      "anonymous": false,
      "inputs": [
        {
          "indexed": false,
          "internalType": "uint256",
          "name": "message",
          "type": "uint256"
        }
      ],
      "name": "LogString",
      "type": "event"
    },
    {
      "inputs": [
        {
          "internalType": "bytes32",
          "name": "",
          "type": "bytes32"
        }
      ],
      "name": "IDs",
      "outputs": [
        {
          "internalType": "string",
          "name": "",
          "type": "string"
        }
      ],
      "stateMutability": "view",
      "type": "function"
    },
    {
      "inputs": [
        {
          "internalType": "address",
          "name": "",
          "type": "address"
        }
      ],
      "name": "Keys",
      "outputs": [
        {
          "internalType": "bytes32",
          "name": "seed",
          "type": "bytes32"
        },
        {
          "internalType": "bytes32",
          "name": "password",
          "type": "bytes32"
        },
        {
          "internalType": "bytes",
          "name": "pubKey",
          "type": "bytes"
        }
      ],
      "stateMutability": "view",
      "type": "function"
    },
    {
      "inputs": [
        {
          "internalType": "address",
          "name": "userAddress",
          "type": "address"
        }
      ],
      "name": "addAdmin",
      "outputs": [],
      "stateMutability": "nonpayable",
      "type": "function"
    },
    {
      "inputs": [],
      "name": "admin",
      "outputs": [
        {
          "internalType": "address",
          "name": "",
          "type": "address"
        }
      ],
      "stateMutability": "view",
      "type": "function"
    },
    {
      "inputs": [
        {
          "internalType": "address",
          "name": "user",
          "type": "address"
        }
      ],
      "name": "checkUserExists",
      "outputs": [
        {
          "internalType": "bool",
          "name": "",
          "type": "bool"
        }
      ],
      "stateMutability": "view",
      "type": "function"
    },
    {
      "inputs": [
        {
          "internalType": "uint256",
          "name": "Id",
          "type": "uint256"
        },
        {
          "internalType": "string",
          "name": "name",
          "type": "string"
        },
        {
          "internalType": "string",
          "name": "email",
          "type": "string"
        },
        {
          "internalType": "address",
          "name": "walletAddress",
          "type": "address"
        },
        {
          "internalType": "bytes32",
          "name": "seed",
          "type": "bytes32"
        },
        {
          "internalType": "bytes32",
          "name": "password",
          "type": "bytes32"
        },
        {
          "internalType": "bytes",
          "name": "pubKey",
          "type": "bytes"
        }
      ],
      "name": "createUser",
      "outputs": [],
      "stateMutability": "nonpayable",
      "type": "function"
    },
    {
      "inputs": [
        {
          "internalType": "string",
          "name": "email",
          "type": "string"
        },
        {
          "internalType": "bytes32",
          "name": "Id",
          "type": "bytes32"
        }
      ],
      "name": "createUserId",
      "outputs": [],
      "stateMutability": "nonpayable",
      "type": "function"
    },
    {
      "inputs": [
        {
          "internalType": "address",
          "name": "walletAddress",
          "type": "address"
        }
      ],
      "name": "deleteUser",
      "outputs": [],
      "stateMutability": "nonpayable",
      "type": "function"
    },
    {
      "inputs": [
        {
          "internalType": "address",
          "name": "walletAddress",
          "type": "address"
        },
        {
          "internalType": "string",
          "name": "name",
          "type": "string"
        },
        {
          "internalType": "string",
          "name": "email",
          "type": "string"
        },
        {
          "internalType": "bool",
          "name": "isAdmin",
          "type": "bool"
        }
      ],
      "name": "editUser",
      "outputs": [],
      "stateMutability": "nonpayable",
      "type": "function"
    },
    {
      "inputs": [
        {
          "internalType": "string",
          "name": "email",
          "type": "string"
        }
      ],
      "name": "getAddress",
      "outputs": [
        {
          "internalType": "address",
          "name": "",
          "type": "address"
        }
      ],
      "stateMutability": "view",
      "type": "function"
    },
    {
      "inputs": [],
      "name": "getAllUsers",
      "outputs": [
        {
          "components": [
            {
              "internalType": "string",
              "name": "name",
              "type": "string"
            },
            {
              "internalType": "string",
              "name": "email",
              "type": "string"
            },
            {
              "internalType": "bool",
              "name": "exists",
              "type": "bool"
            },
            {
              "internalType": "address",
              "name": "walletAddress",
              "type": "address"
            },
            {
              "internalType": "bool",
              "name": "isAdmin",
              "type": "bool"
            }
          ],
          "internalType": "struct Structures.User[]",
          "name": "",
          "type": "tuple[]"
        }
      ],
      "stateMutability": "view",
      "type": "function"
    },
    {
      "inputs": [
        {
          "internalType": "address",
          "name": "adresse",
          "type": "address"
        }
      ],
      "name": "getEmail",
      "outputs": [
        {
          "internalType": "string",
          "name": "",
          "type": "string"
        }
      ],
      "stateMutability": "view",
      "type": "function"
    },
    {
      "inputs": [
        {
          "internalType": "address",
          "name": "adresse",
          "type": "address"
        }
      ],
      "name": "getName",
      "outputs": [
        {
          "internalType": "string",
          "name": "",
          "type": "string"
        }
      ],
      "stateMutability": "view",
      "type": "function"
    },
    {
      "inputs": [
        {
          "internalType": "address",
          "name": "receiver",
          "type": "address"
        }
      ],
      "name": "getRecieverPubKey",
      "outputs": [
        {
          "internalType": "bytes",
          "name": "",
          "type": "bytes"
        }
      ],
      "stateMutability": "view",
      "type": "function"
    },
    {
      "inputs": [
        {
          "internalType": "address",
          "name": "user",
          "type": "address"
        }
      ],
      "name": "isAdmin",
      "outputs": [
        {
          "internalType": "bool",
          "name": "",
          "type": "bool"
        }
      ],
      "stateMutability": "view",
      "type": "function"
    },
    {
      "inputs": [
        {
          "internalType": "address",
          "name": "userAddress",
          "type": "address"
        }
      ],
      "name": "makeAdmin",
      "outputs": [],
      "stateMutability": "nonpayable",
      "type": "function"
    },
    {
      "inputs": [
        {
          "internalType": "address",
          "name": "userAddress",
          "type": "address"
        }
      ],
      "name": "removeAdmin",
      "outputs": [],
      "stateMutability": "nonpayable",
      "type": "function"
    },
    {
      "inputs": [
        {
          "internalType": "uint256",
          "name": "",
          "type": "uint256"
        }
      ],
      "name": "userAddresses",
      "outputs": [
        {
          "internalType": "address",
          "name": "",
          "type": "address"
        }
      ],
      "stateMutability": "view",
      "type": "function"
    },
    {
      "inputs": [
        {
          "internalType": "address",
          "name": "",
          "type": "address"
        }
      ],
      "name": "users",
      "outputs": [
        {
          "internalType": "string",
          "name": "name",
          "type": "string"
        },
        {
          "internalType": "string",
          "name": "email",
          "type": "string"
        },
        {
          "internalType": "bool",
          "name": "exists",
          "type": "bool"
        },
        {
          "internalType": "address",
          "name": "walletAddress",
          "type": "address"
        },
        {
          "internalType": "bool",
          "name": "isAdmin",
          "type": "bool"
        }
      ],
      "stateMutability": "view",
      "type": "function"
    },
    {
      "inputs": [
        {
          "internalType": "address",
          "name": "sender",
          "type": "address"
        },
        {
          "internalType": "bytes32",
          "name": "password",
          "type": "bytes32"
        }
      ],
      "name": "verifyPassword",
      "outputs": [
        {
          "internalType": "bool",
          "name": "",
          "type": "bool"
        }
      ],
      "stateMutability": "view",
      "type": "function"
    },
    {
      "inputs": [
        {
          "internalType": "address",
          "name": "sender",
          "type": "address"
        },
        {
          "internalType": "bytes32",
          "name": "seed",
          "type": "bytes32"
        }
      ],
      "name": "verifySeed",
      "outputs": [
        {
          "internalType": "bool",
          "name": "",
          "type": "bool"
        }
      ],
      "stateMutability": "view",
      "type": "function"
    },
    {
      "inputs": [
        {
          "internalType": "uint256",
          "name": "id",
          "type": "uint256"
        },
        {
          "internalType": "string",
          "name": "email",
          "type": "string"
        }
      ],
      "name": "verifyUser",
      "outputs": [
        {
          "internalType": "bool",
          "name": "",
          "type": "bool"
        }
      ],
      "stateMutability": "view",
      "type": "function"
    }
  ],
  "bytecode": "0x608060405234801561001057600080fd5b50737b60ed2a82267ab814256d3ab977ae5434d01d8b600460006101000a81548173ffffffffffffffffffffffffffffffffffffffff021916908373ffffffffffffffffffffffffffffffffffffffff16021790555061357f806100756000396000f3fe608060405234801561001057600080fd5b50600436106101425760003560e01c80634fa7353c116100b8578063a87430ba1161007c578063a87430ba146103d1578063bf40fac114610405578063c28fa43914610435578063e2842d7914610451578063e5d009bf1461046f578063f851a4401461049f57610142565b80634fa7353c14610309578063502c9bd5146103395780635c60f226146103695780635fd4b08a1461038557806370480275146103b557610142565b80631f4b37ff1161010a5780631f4b37ff1461020f57806324d7806c1461024157806330dbc8ec1461027157806339a4ae6c146102a15780633e07238a146102bd578063472905ca146102ed57610142565b80631112bdf214610147578063133f50f51461017757806313f23927146101a75780631785f53c146101d75780631e8fbd9b146101f3575b600080fd5b610161600480360381019061015c9190612250565b6104bd565b60405161016e91906122c7565b60405180910390f35b610191600480360381019061018c9190612340565b61061a565b60405161019e91906122c7565b60405180910390f35b6101c160048036038101906101bc91906123a3565b610674565b6040516101ce91906122c7565b60405180910390f35b6101f160048036038101906101ec9190612340565b610704565b005b61020d600480360381019061020891906123e3565b61084a565b005b61022960048036038101906102249190612340565b6108fe565b604051610238939291906124cd565b60405180910390f35b61025b60048036038101906102569190612340565b6109b0565b60405161026891906122c7565b60405180910390f35b61028b600480360381019061028691906123a3565b610a06565b60405161029891906122c7565b60405180910390f35b6102bb60048036038101906102b691906125ac565b610a96565b005b6102d760048036038101906102d29190612340565b610e57565b6040516102e491906126a2565b60405180910390f35b61030760048036038101906103029190612340565b610f31565b005b610323600480360381019061031e9190612340565b61101f565b6040516103309190612719565b60405180910390f35b610353600480360381019061034e919061273b565b611142565b6040516103609190612777565b60405180910390f35b610383600480360381019061037e9190612340565b611181565b005b61039f600480360381019061039a9190612340565b611627565b6040516103ac9190612719565b60405180910390f35b6103cf60048036038101906103ca9190612340565b61174a565b005b6103eb60048036038101906103e69190612340565b611835565b6040516103fc959493929190612792565b60405180910390f35b61041f600480360381019061041a91906127f3565b6119b5565b60405161042c9190612777565b60405180910390f35b61044f600480360381019061044a9190612868565b6119fd565b005b610459611c19565b6040516104669190612aae565b60405180910390f35b61048960048036038101906104849190612ad0565b611ef9565b6040516104969190612719565b60405180910390f35b6104a7611f99565b6040516104b49190612777565b60405180910390f35b60006105d16000806002866040516020016104d89190612b0c565b6040516020818303038152906040526040516104f49190612b63565b602060405180830381855afa158015610511573d6000803e3d6000fd5b5050506040513d601f19601f820116820180604052508101906105349190612b8f565b8152602001908152602001600020805461054d90612beb565b80601f016020809104026020016040519081016040528092919081815260200182805461057990612beb565b80156105c65780601f1061059b576101008083540402835291602001916105c6565b820191906000526020600020905b8154815290600101906020018083116105a957829003601f168201915b505050505083611fbf565b610610576040517f08c379a000000000000000000000000000000000000000000000000000000000815260040161060790612c8e565b60405180910390fd5b6001905092915050565b600080600260008473ffffffffffffffffffffffffffffffffffffffff1673ffffffffffffffffffffffffffffffffffffffff168152602001908152602001600020600101805461066a90612beb565b9050119050919050565b600081600160008573ffffffffffffffffffffffffffffffffffffffff1673ffffffffffffffffffffffffffffffffffffffff16815260200190815260200160002060000154146106fa576040517f08c379a00000000000000000000000000000000000000000000000000000000081526004016106f190612cfa565b60405180910390fd5b6001905092915050565b600460009054906101000a900473ffffffffffffffffffffffffffffffffffffffff1673ffffffffffffffffffffffffffffffffffffffff163373ffffffffffffffffffffffffffffffffffffffff1614610794576040517f08c379a000000000000000000000000000000000000000000000000000000000815260040161078b90612d8c565b60405180910390fd5b6000600560008373ffffffffffffffffffffffffffffffffffffffff1673ffffffffffffffffffffffffffffffffffffffff16815260200190815260200160002060006101000a81548160ff0219169083151502179055506000600260008373ffffffffffffffffffffffffffffffffffffffff1673ffffffffffffffffffffffffffffffffffffffff16815260200190815260200160002060020160156101000a81548160ff02191690831515021790555050565b600460009054906101000a900473ffffffffffffffffffffffffffffffffffffffff1673ffffffffffffffffffffffffffffffffffffffff163373ffffffffffffffffffffffffffffffffffffffff16146108da576040517f08c379a00000000000000000000000000000000000000000000000000000000081526004016108d190612d8c565b60405180910390fd5b8160008083815260200190815260200160002090816108f99190612f58565b505050565b600160205280600052604060002060009150905080600001549080600101549080600201805461092d90612beb565b80601f016020809104026020016040519081016040528092919081815260200182805461095990612beb565b80156109a65780601f1061097b576101008083540402835291602001916109a6565b820191906000526020600020905b81548152906001019060200180831161098957829003601f168201915b5050505050905083565b6000600560008373ffffffffffffffffffffffffffffffffffffffff1673ffffffffffffffffffffffffffffffffffffffff16815260200190815260200160002060009054906101000a900460ff169050919050565b600081600160008573ffffffffffffffffffffffffffffffffffffffff1673ffffffffffffffffffffffffffffffffffffffff1681526020019081526020016000206001015414610a8c576040517f08c379a0000000000000000000000000000000000000000000000000000000008152600401610a8390613076565b60405180910390fd5b6001905092915050565b6000865111610ada576040517f08c379a0000000000000000000000000000000000000000000000000000000008152600401610ad1906130e2565b60405180910390fd5b60006040518060a001604052808881526020018781526020016001151581526020018673ffffffffffffffffffffffffffffffffffffffff1681526020016000151581525090506000604051806060016040528086815260200185815260200184815250905081600260008873ffffffffffffffffffffffffffffffffffffffff1673ffffffffffffffffffffffffffffffffffffffff1681526020019081526020016000206000820151816000019081610b959190612f58565b506020820151816001019081610bab9190612f58565b5060408201518160020160006101000a81548160ff02191690831515021790555060608201518160020160016101000a81548173ffffffffffffffffffffffffffffffffffffffff021916908373ffffffffffffffffffffffffffffffffffffffff16021790555060808201518160020160156101000a81548160ff0219169083151502179055509050506003869080600181540180825580915050600190039060005260206000200160009091909190916101000a81548173ffffffffffffffffffffffffffffffffffffffff021916908373ffffffffffffffffffffffffffffffffffffffff16021790555085600689604051610caa919061313e565b908152602001604051809103902060006101000a81548173ffffffffffffffffffffffffffffffffffffffff021916908373ffffffffffffffffffffffffffffffffffffffff16021790555085600788604051610d07919061313e565b908152602001604051809103902060006101000a81548173ffffffffffffffffffffffffffffffffffffffff021916908373ffffffffffffffffffffffffffffffffffffffff16021790555080600160008873ffffffffffffffffffffffffffffffffffffffff1673ffffffffffffffffffffffffffffffffffffffff16815260200190815260200160002060008201518160000155602082015181600101556040820151816002019081610dbc91906131b0565b5090505060008060028b604051602001610dd69190612b0c565b604051602081830303815290604052604051610df29190612b63565b602060405180830381855afa158015610e0f573d6000803e3d6000fd5b5050506040513d601f19601f82011682018060405250810190610e329190612b8f565b81526020019081526020016000206000610e4c9190611fda565b505050505050505050565b60606000600160008473ffffffffffffffffffffffffffffffffffffffff1673ffffffffffffffffffffffffffffffffffffffff1681526020019081526020016000206002018054610ea890612beb565b80601f0160208091040260200160405190810160405280929190818152602001828054610ed490612beb565b8015610f215780601f10610ef657610100808354040283529160200191610f21565b820191906000526020600020905b815481529060010190602001808311610f0457829003601f168201915b5050505050905080915050919050565b600460009054906101000a900473ffffffffffffffffffffffffffffffffffffffff1673ffffffffffffffffffffffffffffffffffffffff163373ffffffffffffffffffffffffffffffffffffffff1614610fc1576040517f08c379a0000000000000000000000000000000000000000000000000000000008152600401610fb890612d8c565b60405180910390fd5b6001600260008373ffffffffffffffffffffffffffffffffffffffff1673ffffffffffffffffffffffffffffffffffffffff16815260200190815260200160002060020160156101000a81548160ff02191690831515021790555050565b60606001151561102e8361061a565b151514611070576040517f08c379a0000000000000000000000000000000000000000000000000000000008152600401611067906132f4565b60405180910390fd5b600260008373ffffffffffffffffffffffffffffffffffffffff1673ffffffffffffffffffffffffffffffffffffffff16815260200190815260200160002060010180546110bd90612beb565b80601f01602080910402602001604051908101604052809291908181526020018280546110e990612beb565b80156111365780601f1061110b57610100808354040283529160200191611136565b820191906000526020600020905b81548152906001019060200180831161111957829003601f168201915b50505050509050919050565b6003818154811061115257600080fd5b906000526020600020016000915054906101000a900473ffffffffffffffffffffffffffffffffffffffff1681565b600460009054906101000a900473ffffffffffffffffffffffffffffffffffffffff1673ffffffffffffffffffffffffffffffffffffffff163373ffffffffffffffffffffffffffffffffffffffff1614611211576040517f08c379a000000000000000000000000000000000000000000000000000000000815260040161120890612d8c565b60405180910390fd5b600073ffffffffffffffffffffffffffffffffffffffff168173ffffffffffffffffffffffffffffffffffffffff1603611280576040517f08c379a000000000000000000000000000000000000000000000000000000000815260040161127790613386565b60405180910390fd5b600260008273ffffffffffffffffffffffffffffffffffffffff1673ffffffffffffffffffffffffffffffffffffffff168152602001908152602001600020600080820160006112d09190611fda565b6001820160006112e09190611fda565b6002820160006101000a81549060ff02191690556002820160016101000a81549073ffffffffffffffffffffffffffffffffffffffff02191690556002820160156101000a81549060ff021916905550506006600260008373ffffffffffffffffffffffffffffffffffffffff1673ffffffffffffffffffffffffffffffffffffffff1681526020019081526020016000206000016040516113829190613429565b908152602001604051809103902060006101000a81549073ffffffffffffffffffffffffffffffffffffffff02191690556007600260008373ffffffffffffffffffffffffffffffffffffffff1673ffffffffffffffffffffffffffffffffffffffff1681526020019081526020016000206001016040516114049190613429565b908152602001604051809103902060006101000a81549073ffffffffffffffffffffffffffffffffffffffff0219169055600160008273ffffffffffffffffffffffffffffffffffffffff1673ffffffffffffffffffffffffffffffffffffffff1681526020019081526020016000206000808201600090556001820160009055600282016000611495919061201a565b505060005b600380549050811015611623578173ffffffffffffffffffffffffffffffffffffffff16600382815481106114d2576114d1613440565b5b9060005260206000200160009054906101000a900473ffffffffffffffffffffffffffffffffffffffff1673ffffffffffffffffffffffffffffffffffffffff1603611610576003600160038054905061152c919061349e565b8154811061153d5761153c613440565b5b9060005260206000200160009054906101000a900473ffffffffffffffffffffffffffffffffffffffff166003828154811061157c5761157b613440565b5b9060005260206000200160006101000a81548173ffffffffffffffffffffffffffffffffffffffff021916908373ffffffffffffffffffffffffffffffffffffffff16021790555060038054806115d6576115d56134d2565b5b6001900381819060005260206000200160006101000a81549073ffffffffffffffffffffffffffffffffffffffff02191690559055611623565b808061161b90613501565b91505061149a565b5050565b6060600115156116368361061a565b151514611678576040517f08c379a000000000000000000000000000000000000000000000000000000000815260040161166f906132f4565b60405180910390fd5b600260008373ffffffffffffffffffffffffffffffffffffffff1673ffffffffffffffffffffffffffffffffffffffff16815260200190815260200160002060000180546116c590612beb565b80601f01602080910402602001604051908101604052809291908181526020018280546116f190612beb565b801561173e5780601f106117135761010080835404028352916020019161173e565b820191906000526020600020905b81548152906001019060200180831161172157829003601f168201915b50505050509050919050565b600460009054906101000a900473ffffffffffffffffffffffffffffffffffffffff1673ffffffffffffffffffffffffffffffffffffffff163373ffffffffffffffffffffffffffffffffffffffff16146117da576040517f08c379a00000000000000000000000000000000000000000000000000000000081526004016117d190612d8c565b60405180910390fd5b6001600560008373ffffffffffffffffffffffffffffffffffffffff1673ffffffffffffffffffffffffffffffffffffffff16815260200190815260200160002060006101000a81548160ff02191690831515021790555050565b600260205280600052604060002060009150905080600001805461185890612beb565b80601f016020809104026020016040519081016040528092919081815260200182805461188490612beb565b80156118d15780601f106118a6576101008083540402835291602001916118d1565b820191906000526020600020905b8154815290600101906020018083116118b457829003601f168201915b5050505050908060010180546118e690612beb565b80601f016020809104026020016040519081016040528092919081815260200182805461191290612beb565b801561195f5780601f106119345761010080835404028352916020019161195f565b820191906000526020600020905b81548152906001019060200180831161194257829003601f168201915b5050505050908060020160009054906101000a900460ff16908060020160019054906101000a900473ffffffffffffffffffffffffffffffffffffffff16908060020160159054906101000a900460ff16905085565b60006007826040516119c7919061313e565b908152602001604051809103902060009054906101000a900473ffffffffffffffffffffffffffffffffffffffff169050919050565b600460009054906101000a900473ffffffffffffffffffffffffffffffffffffffff1673ffffffffffffffffffffffffffffffffffffffff163373ffffffffffffffffffffffffffffffffffffffff1614611a8d576040517f08c379a0000000000000000000000000000000000000000000000000000000008152600401611a8490612d8c565b60405180910390fd5b611a968461061a565b611ad5576040517f08c379a0000000000000000000000000000000000000000000000000000000008152600401611acc90613386565b60405180910390fd5b6000600260008673ffffffffffffffffffffffffffffffffffffffff1673ffffffffffffffffffffffffffffffffffffffff168152602001908152602001600020905083816000019081611b299190612f58565b5082816001019081611b3b9190612f58565b50818160020160156101000a81548160ff02191690831515021790555084600685604051611b69919061313e565b908152602001604051809103902060006101000a81548173ffffffffffffffffffffffffffffffffffffffff021916908373ffffffffffffffffffffffffffffffffffffffff16021790555084600784604051611bc6919061313e565b908152602001604051809103902060006101000a81548173ffffffffffffffffffffffffffffffffffffffff021916908373ffffffffffffffffffffffffffffffffffffffff1602179055505050505050565b6060600060038054905067ffffffffffffffff811115611c3c57611c3b612125565b5b604051908082528060200260200182016040528015611c7557816020015b611c6261205a565b815260200190600190039081611c5a5790505b50905060005b600380549050811015611ef1576002600060038381548110611ca057611c9f613440565b5b9060005260206000200160009054906101000a900473ffffffffffffffffffffffffffffffffffffffff1673ffffffffffffffffffffffffffffffffffffffff1673ffffffffffffffffffffffffffffffffffffffff1681526020019081526020016000206040518060a0016040529081600082018054611d2090612beb565b80601f0160208091040260200160405190810160405280929190818152602001828054611d4c90612beb565b8015611d995780601f10611d6e57610100808354040283529160200191611d99565b820191906000526020600020905b815481529060010190602001808311611d7c57829003601f168201915b50505050508152602001600182018054611db290612beb565b80601f0160208091040260200160405190810160405280929190818152602001828054611dde90612beb565b8015611e2b5780601f10611e0057610100808354040283529160200191611e2b565b820191906000526020600020905b815481529060010190602001808311611e0e57829003601f168201915b505050505081526020016002820160009054906101000a900460ff161515151581526020016002820160019054906101000a900473ffffffffffffffffffffffffffffffffffffffff1673ffffffffffffffffffffffffffffffffffffffff1673ffffffffffffffffffffffffffffffffffffffff1681526020016002820160159054906101000a900460ff161515151581525050828281518110611ed357611ed2613440565b5b60200260200101819052508080611ee990613501565b915050611c7b565b508091505090565b60006020528060005260406000206000915090508054611f1890612beb565b80601f0160208091040260200160405190810160405280929190818152602001828054611f4490612beb565b8015611f915780601f10611f6657610100808354040283529160200191611f91565b820191906000526020600020905b815481529060010190602001808311611f7457829003601f168201915b505050505081565b600460009054906101000a900473ffffffffffffffffffffffffffffffffffffffff1681565b60008180519060200120838051906020012014905092915050565b508054611fe690612beb565b6000825580601f10611ff85750612017565b601f01602090049060005260206000209081019061201691906120a3565b5b50565b50805461202690612beb565b6000825580601f106120385750612057565b601f01602090049060005260206000209081019061205691906120a3565b5b50565b6040518060a001604052806060815260200160608152602001600015158152602001600073ffffffffffffffffffffffffffffffffffffffff1681526020016000151581525090565b5b808211156120bc5760008160009055506001016120a4565b5090565b6000604051905090565b600080fd5b600080fd5b6000819050919050565b6120e7816120d4565b81146120f257600080fd5b50565b600081359050612104816120de565b92915050565b600080fd5b600080fd5b6000601f19601f8301169050919050565b7f4e487b7100000000000000000000000000000000000000000000000000000000600052604160045260246000fd5b61215d82612114565b810181811067ffffffffffffffff8211171561217c5761217b612125565b5b80604052505050565b600061218f6120c0565b905061219b8282612154565b919050565b600067ffffffffffffffff8211156121bb576121ba612125565b5b6121c482612114565b9050602081019050919050565b82818337600083830152505050565b60006121f36121ee846121a0565b612185565b90508281526020810184848401111561220f5761220e61210f565b5b61221a8482856121d1565b509392505050565b600082601f8301126122375761223661210a565b5b81356122478482602086016121e0565b91505092915050565b60008060408385031215612267576122666120ca565b5b6000612275858286016120f5565b925050602083013567ffffffffffffffff811115612296576122956120cf565b5b6122a285828601612222565b9150509250929050565b60008115159050919050565b6122c1816122ac565b82525050565b60006020820190506122dc60008301846122b8565b92915050565b600073ffffffffffffffffffffffffffffffffffffffff82169050919050565b600061230d826122e2565b9050919050565b61231d81612302565b811461232857600080fd5b50565b60008135905061233a81612314565b92915050565b600060208284031215612356576123556120ca565b5b60006123648482850161232b565b91505092915050565b6000819050919050565b6123808161236d565b811461238b57600080fd5b50565b60008135905061239d81612377565b92915050565b600080604083850312156123ba576123b96120ca565b5b60006123c88582860161232b565b92505060206123d98582860161238e565b9150509250929050565b600080604083850312156123fa576123f96120ca565b5b600083013567ffffffffffffffff811115612418576124176120cf565b5b61242485828601612222565b92505060206124358582860161238e565b9150509250929050565b6124488161236d565b82525050565b600081519050919050565b600082825260208201905092915050565b60005b8381101561248857808201518184015260208101905061246d565b60008484015250505050565b600061249f8261244e565b6124a98185612459565b93506124b981856020860161246a565b6124c281612114565b840191505092915050565b60006060820190506124e2600083018661243f565b6124ef602083018561243f565b81810360408301526125018184612494565b9050949350505050565b600067ffffffffffffffff82111561252657612525612125565b5b61252f82612114565b9050602081019050919050565b600061254f61254a8461250b565b612185565b90508281526020810184848401111561256b5761256a61210f565b5b6125768482856121d1565b509392505050565b600082601f8301126125935761259261210a565b5b81356125a384826020860161253c565b91505092915050565b600080600080600080600060e0888a0312156125cb576125ca6120ca565b5b60006125d98a828b016120f5565b975050602088013567ffffffffffffffff8111156125fa576125f96120cf565b5b6126068a828b01612222565b965050604088013567ffffffffffffffff811115612627576126266120cf565b5b6126338a828b01612222565b95505060606126448a828b0161232b565b94505060806126558a828b0161238e565b93505060a06126668a828b0161238e565b92505060c088013567ffffffffffffffff811115612687576126866120cf565b5b6126938a828b0161257e565b91505092959891949750929550565b600060208201905081810360008301526126bc8184612494565b905092915050565b600081519050919050565b600082825260208201905092915050565b60006126eb826126c4565b6126f581856126cf565b935061270581856020860161246a565b61270e81612114565b840191505092915050565b6000602082019050818103600083015261273381846126e0565b905092915050565b600060208284031215612751576127506120ca565b5b600061275f848285016120f5565b91505092915050565b61277181612302565b82525050565b600060208201905061278c6000830184612768565b92915050565b600060a08201905081810360008301526127ac81886126e0565b905081810360208301526127c081876126e0565b90506127cf60408301866122b8565b6127dc6060830185612768565b6127e960808301846122b8565b9695505050505050565b600060208284031215612809576128086120ca565b5b600082013567ffffffffffffffff811115612827576128266120cf565b5b61283384828501612222565b91505092915050565b612845816122ac565b811461285057600080fd5b50565b6000813590506128628161283c565b92915050565b60008060008060808587031215612882576128816120ca565b5b60006128908782880161232b565b945050602085013567ffffffffffffffff8111156128b1576128b06120cf565b5b6128bd87828801612222565b935050604085013567ffffffffffffffff8111156128de576128dd6120cf565b5b6128ea87828801612222565b92505060606128fb87828801612853565b91505092959194509250565b600081519050919050565b600082825260208201905092915050565b6000819050602082019050919050565b600082825260208201905092915050565b600061294f826126c4565b6129598185612933565b935061296981856020860161246a565b61297281612114565b840191505092915050565b612986816122ac565b82525050565b61299581612302565b82525050565b600060a08301600083015184820360008601526129b88282612944565b915050602083015184820360208601526129d28282612944565b91505060408301516129e7604086018261297d565b5060608301516129fa606086018261298c565b506080830151612a0d608086018261297d565b508091505092915050565b6000612a24838361299b565b905092915050565b6000602082019050919050565b6000612a4482612907565b612a4e8185612912565b935083602082028501612a6085612923565b8060005b85811015612a9c5784840389528151612a7d8582612a18565b9450612a8883612a2c565b925060208a01995050600181019050612a64565b50829750879550505050505092915050565b60006020820190508181036000830152612ac88184612a39565b905092915050565b600060208284031215612ae657612ae56120ca565b5b6000612af48482850161238e565b91505092915050565b612b06816120d4565b82525050565b6000602082019050612b216000830184612afd565b92915050565b600081905092915050565b6000612b3d8261244e565b612b478185612b27565b9350612b5781856020860161246a565b80840191505092915050565b6000612b6f8284612b32565b915081905092915050565b600081519050612b8981612377565b92915050565b600060208284031215612ba557612ba46120ca565b5b6000612bb384828501612b7a565b91505092915050565b7f4e487b7100000000000000000000000000000000000000000000000000000000600052602260045260246000fd5b60006002820490506001821680612c0357607f821691505b602082108103612c1657612c15612bbc565b5b50919050565b7f596f7520646f6e27742068617665207065726d697373696f6e20746f2063726560008201527f61746520616e206163636f756e74202100000000000000000000000000000000602082015250565b6000612c786030836126cf565b9150612c8382612c1c565b604082019050919050565b60006020820190508181036000830152612ca781612c6b565b9050919050565b7f496e76616c696420536565640000000000000000000000000000000000000000600082015250565b6000612ce4600c836126cf565b9150612cef82612cae565b602082019050919050565b60006020820190508181036000830152612d1381612cd7565b9050919050565b7f4f6e6c792061646d696e2063616e20706572666f726d2074686973206163746960008201527f6f6e000000000000000000000000000000000000000000000000000000000000602082015250565b6000612d766022836126cf565b9150612d8182612d1a565b604082019050919050565b60006020820190508181036000830152612da581612d69565b9050919050565b60008190508160005260206000209050919050565b60006020601f8301049050919050565b600082821b905092915050565b600060088302612e0e7fffffffffffffffffffffffffffffffffffffffffffffffffffffffffffffffff82612dd1565b612e188683612dd1565b95508019841693508086168417925050509392505050565b6000819050919050565b6000612e55612e50612e4b846120d4565b612e30565b6120d4565b9050919050565b6000819050919050565b612e6f83612e3a565b612e83612e7b82612e5c565b848454612dde565b825550505050565b600090565b612e98612e8b565b612ea3818484612e66565b505050565b5b81811015612ec757612ebc600082612e90565b600181019050612ea9565b5050565b601f821115612f0c57612edd81612dac565b612ee684612dc1565b81016020851015612ef5578190505b612f09612f0185612dc1565b830182612ea8565b50505b505050565b600082821c905092915050565b6000612f2f60001984600802612f11565b1980831691505092915050565b6000612f488383612f1e565b9150826002028217905092915050565b612f61826126c4565b67ffffffffffffffff811115612f7a57612f79612125565b5b612f848254612beb565b612f8f828285612ecb565b600060209050601f831160018114612fc25760008415612fb0578287015190505b612fba8582612f3c565b865550613022565b601f198416612fd086612dac565b60005b82811015612ff857848901518255600182019150602085019450602081019050612fd3565b868310156130155784890151613011601f891682612f1e565b8355505b6001600288020188555050505b505050505050565b7f496e76616c69642050617373776f726400000000000000000000000000000000600082015250565b60006130606010836126cf565b915061306b8261302a565b602082019050919050565b6000602082019050818103600083015261308f81613053565b9050919050565b7f596f75206861766520746f207370656369667920796f7572206e616d65202100600082015250565b60006130cc601f836126cf565b91506130d782613096565b602082019050919050565b600060208201905081810360008301526130fb816130bf565b9050919050565b600081905092915050565b6000613118826126c4565b6131228185613102565b935061313281856020860161246a565b80840191505092915050565b600061314a828461310d565b915081905092915050565b60008190508160005260206000209050919050565b601f8211156131ab5761317c81613155565b61318584612dc1565b81016020851015613194578190505b6131a86131a085612dc1565b830182612ea8565b50505b505050565b6131b98261244e565b67ffffffffffffffff8111156131d2576131d1612125565b5b6131dc8254612beb565b6131e782828561316a565b600060209050601f83116001811461321a5760008415613208578287015190505b6132128582612f3c565b86555061327a565b601f19841661322886613155565b60005b828110156132505784890151825560018201915060208501945060208101905061322b565b8683101561326d5784890151613269601f891682612f1e565b8355505b6001600288020188555050505b505050505050565b7f55736572207769746820676976656e206164647265737320646f6e277420657860008201527f6973740000000000000000000000000000000000000000000000000000000000602082015250565b60006132de6023836126cf565b91506132e982613282565b604082019050919050565b6000602082019050818103600083015261330d816132d1565b9050919050565b7f55736572207769746820676976656e206164647265737320646f6573206e6f7460008201527f2065786973742e00000000000000000000000000000000000000000000000000602082015250565b60006133706027836126cf565b915061337b82613314565b604082019050919050565b6000602082019050818103600083015261339f81613363565b9050919050565b600081546133b381612beb565b6133bd8186613102565b945060018216600081146133d857600181146133ed57613420565b60ff1983168652811515820286019350613420565b6133f685612dac565b60005b83811015613418578154818901526001820191506020810190506133f9565b838801955050505b50505092915050565b600061343582846133a6565b915081905092915050565b7f4e487b7100000000000000000000000000000000000000000000000000000000600052603260045260246000fd5b7f4e487b7100000000000000000000000000000000000000000000000000000000600052601160045260246000fd5b60006134a9826120d4565b91506134b4836120d4565b92508282039050818111156134cc576134cb61346f565b5b92915050565b7f4e487b7100000000000000000000000000000000000000000000000000000000600052603160045260246000fd5b600061350c826120d4565b91507fffffffffffffffffffffffffffffffffffffffffffffffffffffffffffffffff820361353e5761353d61346f565b5b60018201905091905056fea26469706673582212201637eb9bba09fa26df262121ede37e3e8475a768a541b4b407be82c49ecc114164736f6c63430008120033",
  "linkReferences": {},
  "deployedLinkReferences": {}
}