{
  "_format": "hh-sol-artifact-1",
  "contractName": "UserAccount",
  "sourceName": "contracts/UserAccount.sol",
  "abi": [
    {
      "inputs": [
        {
          "internalType": "string",
          "name": "_username",
          "type": "string"
        },
        {
          "internalType": "string",
          "name": "_email",
          "type": "string"
        }
      ],
      "name": "createAccount",
      "outputs": [],
      "stateMutability": "nonpayable",
      "type": "function"
    },
    {
      "inputs": [],
      "name": "deleteAccount",
      "outputs": [],
      "stateMutability": "nonpayable",
      "type": "function"
    },
    {
      "inputs": [],
      "name": "getAccount",
      "outputs": [
        {
          "internalType": "string",
          "name": "",
          "type": "string"
        },
        {
          "internalType": "string",
          "name": "",
          "type": "string"
        },
        {
          "internalType": "bool",
          "name": "",
          "type": "bool"
        }
      ],
      "stateMutability": "view",
      "type": "function"
    },
    {
      "inputs": [
        {
          "internalType": "string",
          "name": "_username",
          "type": "string"
        },
        {
          "internalType": "string",
          "name": "_email",
          "type": "string"
        }
      ],
      "name": "updateAccount",
      "outputs": [],
      "stateMutability": "nonpayable",
      "type": "function"
    }
  ],
  "bytecode": "0x608060405234801561001057600080fd5b50610bbe806100206000396000f3fe608060405234801561001057600080fd5b506004361061004c5760003560e01c806319289287146100515780633be32f7d1461006d578063534c1bdd14610077578063db613e8114610093575b600080fd5b61006b600480360381019061006691906106dd565b6100b3565b005b610075610162565b005b610091600480360381019061008c91906106dd565b610253565b005b61009b61038a565b6040516100aa939291906107ef565b60405180910390f35b6040518060600160405280838152602001828152602001600115158152506000803373ffffffffffffffffffffffffffffffffffffffff1673ffffffffffffffffffffffffffffffffffffffff16815260200190815260200160002060008201518160000190816101249190610a4a565b50602082015181600101908161013a9190610a4a565b5060408201518160020160006101000a81548160ff0219169083151502179055509050505050565b600115156000803373ffffffffffffffffffffffffffffffffffffffff1673ffffffffffffffffffffffffffffffffffffffff16815260200190815260200160002060020160009054906101000a900460ff161515146101f7576040517f08c379a00000000000000000000000000000000000000000000000000000000081526004016101ee90610b68565b60405180910390fd5b60008060003373ffffffffffffffffffffffffffffffffffffffff1673ffffffffffffffffffffffffffffffffffffffff16815260200190815260200160002060020160006101000a81548160ff021916908315150217905550565b600115156000803373ffffffffffffffffffffffffffffffffffffffff1673ffffffffffffffffffffffffffffffffffffffff16815260200190815260200160002060020160009054906101000a900460ff161515146102e8576040517f08c379a00000000000000000000000000000000000000000000000000000000081526004016102df90610b68565b60405180910390fd5b816000803373ffffffffffffffffffffffffffffffffffffffff1673ffffffffffffffffffffffffffffffffffffffff16815260200190815260200160002060000190816103369190610a4a565b50806000803373ffffffffffffffffffffffffffffffffffffffff1673ffffffffffffffffffffffffffffffffffffffff16815260200190815260200160002060010190816103859190610a4a565b505050565b60608060008060003373ffffffffffffffffffffffffffffffffffffffff1673ffffffffffffffffffffffffffffffffffffffff1681526020019081526020016000206000016000803373ffffffffffffffffffffffffffffffffffffffff1673ffffffffffffffffffffffffffffffffffffffff1681526020019081526020016000206001016000803373ffffffffffffffffffffffffffffffffffffffff1673ffffffffffffffffffffffffffffffffffffffff16815260200190815260200160002060020160009054906101000a900460ff1682805461046c90610863565b80601f016020809104026020016040519081016040528092919081815260200182805461049890610863565b80156104e55780601f106104ba576101008083540402835291602001916104e5565b820191906000526020600020905b8154815290600101906020018083116104c857829003601f168201915b505050505092508180546104f890610863565b80601f016020809104026020016040519081016040528092919081815260200182805461052490610863565b80156105715780601f1061054657610100808354040283529160200191610571565b820191906000526020600020905b81548152906001019060200180831161055457829003601f168201915b50505050509150925092509250909192565b6000604051905090565b600080fd5b600080fd5b600080fd5b600080fd5b6000601f19601f8301169050919050565b7f4e487b7100000000000000000000000000000000000000000000000000000000600052604160045260246000fd5b6105ea826105a1565b810181811067ffffffffffffffff82111715610609576106086105b2565b5b80604052505050565b600061061c610583565b905061062882826105e1565b919050565b600067ffffffffffffffff821115610648576106476105b2565b5b610651826105a1565b9050602081019050919050565b82818337600083830152505050565b600061068061067b8461062d565b610612565b90508281526020810184848401111561069c5761069b61059c565b5b6106a784828561065e565b509392505050565b600082601f8301126106c4576106c3610597565b5b81356106d484826020860161066d565b91505092915050565b600080604083850312156106f4576106f361058d565b5b600083013567ffffffffffffffff81111561071257610711610592565b5b61071e858286016106af565b925050602083013567ffffffffffffffff81111561073f5761073e610592565b5b61074b858286016106af565b9150509250929050565b600081519050919050565b600082825260208201905092915050565b60005b8381101561078f578082015181840152602081019050610774565b60008484015250505050565b60006107a682610755565b6107b08185610760565b93506107c0818560208601610771565b6107c9816105a1565b840191505092915050565b60008115159050919050565b6107e9816107d4565b82525050565b60006060820190508181036000830152610809818661079b565b9050818103602083015261081d818561079b565b905061082c60408301846107e0565b949350505050565b7f4e487b7100000000000000000000000000000000000000000000000000000000600052602260045260246000fd5b6000600282049050600182168061087b57607f821691505b60208210810361088e5761088d610834565b5b50919050565b60008190508160005260206000209050919050565b60006020601f8301049050919050565b600082821b905092915050565b6000600883026108f67fffffffffffffffffffffffffffffffffffffffffffffffffffffffffffffffff826108b9565b61090086836108b9565b95508019841693508086168417925050509392505050565b6000819050919050565b6000819050919050565b600061094761094261093d84610918565b610922565b610918565b9050919050565b6000819050919050565b6109618361092c565b61097561096d8261094e565b8484546108c6565b825550505050565b600090565b61098a61097d565b610995818484610958565b505050565b5b818110156109b9576109ae600082610982565b60018101905061099b565b5050565b601f8211156109fe576109cf81610894565b6109d8846108a9565b810160208510156109e7578190505b6109fb6109f3856108a9565b83018261099a565b50505b505050565b600082821c905092915050565b6000610a2160001984600802610a03565b1980831691505092915050565b6000610a3a8383610a10565b9150826002028217905092915050565b610a5382610755565b67ffffffffffffffff811115610a6c57610a6b6105b2565b5b610a768254610863565b610a818282856109bd565b600060209050601f831160018114610ab45760008415610aa2578287015190505b610aac8582610a2e565b865550610b14565b601f198416610ac286610894565b60005b82811015610aea57848901518255600182019150602085019450602081019050610ac5565b86831015610b075784890151610b03601f891682610a10565b8355505b6001600288020188555050505b505050505050565b7f4163636f756e7420646f6573206e6f7420657869737400000000000000000000600082015250565b6000610b52601683610760565b9150610b5d82610b1c565b602082019050919050565b60006020820190508181036000830152610b8181610b45565b905091905056fea264697066735822122069148329829973f788b7c97c7bf09583b6f63255f4bcfcab06dfea8b1fc503f564736f6c63430008120033",
  "linkReferences": {},
  "deployedLinkReferences": {}
}